:020000040800F2
:10000000D8F6002031020008F1060008E9060008D1
:10001000ED060008B9060008E90700080000000026
:100020000000000000000000000000004302000883
:10003000450200080000000047020008FD06000815
:100040004B0200084B0200084B0200084B0200085C
:100050004B0200084B0200084B0200084B0200084C
:100060004B0200084B0200084B0200084B0200083C
:100070004B0200084B0200084B0200084B0200082C
:100080004B0200084B0200084B0200084B0200081C
:100090004B0200084B0200084B0200084B0200080C
:1000A0004B0200084B0200084B0200084B020008FC
:1000B0004B0200084B0200084B0200084B020008EC
:1000C0004B0200084B0200084B0200084B020008DC
:1000D0004B0200084B0200084B0200084B020008CC
:1000E0004B0200084B0200084B0200084B020008BC
:1000F0004B0200084B0200084B0200084B020008AC
:100100004B020008F30600084B0200084B020008EF
:100110004B0200084B0200084B0200084B0200088B
:100120004B0200084B0200084B0200084B0200087B
:100130004B020008BD0600084B0200084B020008F5
:100140004B0200084B0200084B0200084B0200085B
:100150004B0200084B0200084B0200084B0200084B
:100160004B0200084B0200084B0200084B0200083B
:100170004B0200084B0200084B0200080000000080
:100180004B0200084B02000800F002F800F041F8B2
:100190000AA090E8000C82448344AAF10107DA45E2
:1001A00001D100F036F8AFF2090EBAE80F0013F0F3
:1001B000010F18BFFB1A43F001031847D4A8000031
:1001C000F4A80000103A24BF78C878C1FAD85207C2
:1001D00024BF30C830C144BF04680C6070470000C1
:1001E0000023002400250026103A28BF78C1FBD840
:1001F000520728BF30C148BF0B607047642900F028
:100200007780002070471FB50AF0E0FA1FBD10B5D7
:1002100010BD00F023FA1146FFF7F5FF04F07AFF56
:1002200000F041FA03B4FFF7F2FF03BC00F0F2FA6A
:100230000948804709480047FEE7FEE7FEE7FEE77A
:10024000FEE7FEE7FEE7FEE7FEE7FEE704480549B6
:10025000054A064B70470000150700088901000891
:10026000D8D60020D8F60020D8E60020D8E6002016
:100270000FB4044910B503AA029800F08BF910BC22
:100280005DF814FB1C0000202DE9F0410E460446E9
:10029000002020622046E168884730B3252805D039
:1002A000D4E901219047206A401CF2E7E16820462A
:1002B00000278847050018D0A5F14100192802D869
:1002C00020354FF400673246294620462760FFF765
:1002D00095FF40B1012804D0F61D26F00706083628
:1002E000D8E7361DD6E72846DAE7206ABDE8F08170
:1002F0002DE9F0410646002410687529314616A5FF
:1003000010D0AFF30080002802DA404213A507E0C6
:1003100031688A0701D512A502E0490704D511A565
:10032000012401E0AFF3008000210A2206F1240736
:1003300009E0B0FBF2FCB0FBF2F302FB1C00303032
:1003400078541846491C0028F3D123462A463046E3
:10035000BDE8F04100F0C5B8000000002D0000002D
:100360002B0000002000000040EA010310B59B07AD
:100370000FD1042A0DD310C808C9121F9C42F8D00F
:1003800020BA19BA884201D9012010BD4FF0FF30C0
:1003900010BD1AB1D30703D0521C07E0002010BDD6
:1003A00010F8013B11F8014B1B1B07D110F8013B62
:1003B00011F8014B1B1B01D1921EF1D1184610BD43
:1003C000032A40F2308010F0030C00F0158011F881
:1003D000013BBCF1020F624498BF11F801CB00F859
:1003E000013B38BF11F8013BA2F1040298BF00F8AD
:1003F00001CB38BF00F8013B11F0030300F0DC80B3
:10040000083AC0F0088051F8043B083A51F804CB90
:10041000A0E80810F5E7121D5CBF51F8043B40F856
:10042000043BAFF30080D20724BF11F8013B11F861
:1004300001CB48BF11F8012B24BF00F8013B00F8A5
:1004400001CB48BF00F8012B70474FF00002042990
:10045000C0F0128010F0030C00F01B80CCF1040CF3
:10046000BCF1020F18BF00F8012BA8BF20F8022B27
:10047000A1EB0C0100F00DB85FEAC17C24BF00F8CD
:10048000012B00F8012B48BF00F8012B70474FF0FB
:10049000000200B5134694469646203922BFA0E8D4
:1004A0000C50A0E80C50B1F12001BFF4F7AF0907E0
:1004B00028BFA0E80C5048BF0CC05DF804EB8900D1
:1004C00028BF40F8042B08BF704748BF20F8022B14
:1004D00011F0804F18BF00F8012B7047704770472C
:1004E00070472DE9F0470D4699469246044600F1C3
:1004F00024080168880604D5E06921F01001216014
:1005000000E00120A84201DD471B00E00027A169AF
:100510007A1902EB0900081AA0612078C00602D4FB
:100520002046AFF30080002608E0D4E901211AF844
:1005300006009047206A401C761C20624E45F4DB82
:100540002078C0060AD52046AFF3008006E0D4E943
:10055000012130209047206A401C2062381EA7F1FC
:100560000107F4DC07E0D4E9012118F80500904701
:10057000206A401C2062281EA5F10105F3DC2046FC
:10058000AFF300802078000602D50220BDE8F08796
:100590000120FBE7074B70B50D467B4400F047F8A0
:1005A0000446284600F056F810B14FF0FF3070BDF9
:1005B000204670BD7331000010B5203AC0F00B80AA
:1005C000B1E81850203AA0E81850B1E81850A0E857
:1005D0001850BFF4F5AF5FEA027C24BFB1E81850B1
:1005E000A0E8185044BF18C918C0BDE810405FEA21
:1005F000827C24BF51F8043B40F8043B08BF70479D
:10060000D20728BF31F8023B48BF11F8012B28BFA1
:1006100020F8023B48BF00F8012B704700487047A4
:1006200074D6002001694A1C02610878704700B541
:100630008FB0CDE901310021059105497944CDE91B
:10064000031011466846FFF71FFE0FB000BD000003
:10065000E5FFFFFF007B00F0800070477546FFF765
:10066000DDFFAE4605006946534620F0070085468B
:1006700018B020B5FFF7EAFDBDE820404FF00006B6
:100680004FF000074FF000084FF0000B21F007017A
:10069000AC46ACE8C009ACE8C009ACE8C009ACE8BD
:1006A000C0098D46704710B50446AFF30080204660
:1006B000BDE81040FFF7B6BD00BFFEE710B5094822
:1006C00002F090F807480A3002F08CF800BF02F000
:1006D000F7F90446012C01D904F0E4FC002CF6D112
:1006E00010BD00000605040000BFFEE700BFFEE7E6
:1006F000704710B505F08AFF10BD000010B5044822
:100700000068401C0249086006F0A0F810BD000017
:100710000000002008B53048006840F470002E4901
:1007200008602E48006840F001002C49086000BFB6
:100730002A48006800F002000028F9D000BF2748CE
:100740000830006840F0800024490831086000202B
:10075000009002E00098401C009000985028F9D3C7
:100760001E480830006840F090001C4908310860BD
:100770000020009002E00098401C00900098502853
:10078000F9D300BF15480830006820F00300134972
:100790000831086011480068114908400F49086095
:1007A0000846006820F48020086000200B490831CA
:1007B000086000BF09480830006800200028F9D10F
:1007C00008480649091D0860002004490C310860EA
:1007D00006F06CF908BD000088ED00E0003802402A
:1007E000FFFFF6FE1030002400BFFEE710B5002822
:1007F00004DB0A07130E054A135406E00A07140E19
:10080000034A00F00F031B1FD45410BD00E400E0A6
:1008100018ED00E000BF704710B54FF4A06005F080
:10082000F5F800214FF0006005F0FAF806F042F903
:1008300010BD10B5002404E0204600F005F8601C4F
:10084000C4B2042CF8DB10BD10B504464A4931F897
:10085000140005F099FE494931F8140005F094FEA2
:10086000474931F8140005F08FFE464B53F8242019
:10087000454B53F82410454B53F8240002F062FF17
:10088000434B53F82420434B53F82410424B53F866
:10089000240002F057FF3B4951F824303B4951F8FE
:1008A00024000122022102F07CFF364951F8243055
:1008B000364951F824000222002102F099FF344900
:1008C00051F82430344951F824000122022102F069
:1008D00068FF2F4951F824302F4951F82400022293
:1008E000002102F085FF2D4951F8240009F0D2FEC5
:1008F0002B4A52F82410294A52F8240009F052FEDB
:10090000264951F82400042109F046FF234951F8F3
:100910002400082109F048FF204951F8240009F07B
:1009200027FF34B91F49085D0022022105F00CF8A9
:1009300020E0012C06D11B49085D0022022105F0B0
:1009400003F817E0022C06D11649085D0022114673
:1009500004F0FAFF0EE0032C06D11249085D0022D4
:10096000012104F0F1FF05E00E49085D002202219B
:1009700004F0EAFF10BD0000F4A700082CA800084E
:10098000ECA700081CA80008FCA700080CA8000899
:1009900054A8000834A8000844A80008D8A70008F4
:1009A00064A80008E8A7000810B504464FF47A715F
:1009B00004FB01F000F002F810BD000070B5034622
:1009C0000022114D2D68114EB5FBF6F505FB03F421
:1009D0004FF0E025A96913E04FF0E025A8698842AF
:1009E0000ED0884202D20D1A2A4405E04FF0E025CD
:1009F0006D692D1A0D442A440146A24200D300E03D
:100A0000EAE700BF70BD00001800002040420F0060
:100A100070B505460E4600BF2DB900BF0CA0FFF70C
:100A200027FC00BF70BD00BF6C6A00BF00BF6CB187
:100A3000607908280AD100BF00BF3068E1698842A8
:100A400004D100BF00BF284600F0DAF900BFE9E793
:100A50006E6574696620213D204E554C4C000000A7
:100A60007CB5064600BF2EB900BF44A0FFF700FCCE
:100A700000BF7CBD00BF746A00BF2CB900BF46A098
:100A8000FFF7F6FB00BFF4E700BF00BF00BF002088
:100A90006082A06A401C90B100BF00BFA06A1E30F7
:100AA0003C21B0FBF1F5B5F5803F01D34FF6FF7562
:100AB000A582A08A08B90120A08200BF00BFE06A19
:100AC000401CA0B100BF00BFE06A1E303C21B0FB5B
:100AD000F1F5B5F5803F01D34FF6FF75658160896B
:100AE00008B90120608100BF00BF6089E081206BF0
:100AF000401CA0B100BF00BF206B1E303C21B0FBEA
:100B0000F1F5B5F5803F01D34FF6FF75A581A089BA
:100B100008B90120A08100BF00BFA08920826089A0
:100B2000A189884204DBA089002801DD00206081C2
:100B3000E07910B1206A01900FE0207F7F2802DC6D
:100B4000FF21019108E0C02803DB6FF07F41019194
:100B500002E04FF6FF71019100BF606A009000BF94
:100B600000BF0A21204601F099F86B4601AA04F162
:100B70001C01304604F074FE00BF7AE764686370BD
:100B80005F62696E643A206E6574696620213D205B
:100B90004E554C4C00000000646863705F62696EE3
:100BA000643A206468637020213D204E554C4C000F
:100BB0002DE9F0410646746A00BF00BF08212046B7
:100BC00001F06CF8002204F11C01304602F0AEFA8C
:100BD00005460DB100BF00BFA079FF2802DAA07959
:100BE000401CA0714FF4FA7707F2F310394690FBDE
:100BF000F1F0208100BF00BFBDE8F08170B500BFFB
:100C000000BF1B4805682FE06C6AFCB16079E8B151
:100C1000A08A78B1608A401C80B26082A18A884232
:100C200008D100BF00BF284600F062FE284601F050
:100C30003DF818E0208A50B1218A481E20820129FF
:100C400005D100BF00BF284601F0E7F80BE0E089BE
:100C500048B1E189481EE081012904D100BF00BFED
:100C6000284601F0B5F82D68002DCDD170BD0000EB
:100C7000880000202DE9F05F07460D4616469A468B
:100C800000BF3FB900BF40A0FFF7F2FA00BF00204D
:100C9000BDE8F09F00BF00BF35B900BF42A0FFF71D
:100CA000E7FA00BF0020F3E700BF4FF420724FF4D3
:100CB0009A71362004F0FEFE8146B9F1000F03D18F
:100CC00000BF00BF0020E3E700BF00BF032E02D13A
:100CD0006879032809D1A87920B93B480068401CED
:100CE0003949086038480068286000BF00BFD9F85B
:100CF00004404FF49A712046FFF7A7FB01202070B3
:100D0000607097F83000A070286804F087F9606080
:100D1000082E0BD0042E09D0072E07D0032E07D1A2
:100D20006879052802D06879042801D17868E060E4
:100D30004FF000080BE007F12A0010F8081004F14A
:100D40001C0000F8081008F101001FFA80F8B8F143
:100D5000060FF0D31D48C4F8EC000123352204F13E
:100D6000F001002000F00AFA8346324604F1F00157
:100D7000584600F00FFA8346BAF1000F01D0AAF8E6
:100D800000B0484684E70000646863705F63726582
:100D90006174655F6D73673A206E657469662021C2
:100DA0003D204E554C4C0000646863705F63726573
:100DB0006174655F6D73673A206468637020213DDC
:100DC000204E554C4C000000040100206382536308
:100DD00010B500BF00BF08480078401E06490870E3
:100DE0000846007830B90548006809F0FBF9002092
:100DF0000249086010BD000000010020FC00002036
:100E00002DE9FE4F0646746A00BF00BF0C21204644
:100E100000F044FF02AB042221463046FFF72AFFD0
:100E2000054675B3D5F804800423322208F1F00199
:100E3000BDF8080000F0A2F90290E06904F0EEF8B5
:100E40008246524608F1F001BDF8080000F0AAF908
:100E500002902A4608F1F001BDF8080000F0C8F938
:100E600014484323144A2946CDE90060134800681A
:100E700009F07EFA0746284605F0FAF800BF00BFE1
:100E800004E0FFE700BF00BF4FF0FF37A079FF2865
:100E900002DAA079401CA07142F2107909F2F31035
:100EA0004FF4FA7190FBF1F0208100BF00BF38468B
:100EB000BDE8FE8FA4A90008A8A90008FC00002036
:100EC0002DE9FE4F07467C6A4FF0000A00BF00BFC5
:100ED0000020E0610621204600F0E0FE02AB012286
:100EE00021463846FFF7C6FE0546002D4AD06E68FB
:100EF00000BF00BF0223392206F1F001BDF808004F
:100F000000F03CF902903A8D06F1F001BDF80800BE
:100F100000F061F902900323372206F1F001BDF8D9
:100F2000080000F02BF90290D0460DE0274810F899
:100F3000082006F1F001BDF8080000F02BF902903E
:100F400008F1010000F0FF08B8F1030FEED32A46C4
:100F500006F1F001BDF8080000F04AF900BF00BF3B
:100F60001B4843231B4A2946CDE900701A480068F4
:100F700009F0FEF900BF00BF284605F079F800BF70
:100F800000BF01E000BF00BFA079FF2802DAA0790E
:100F9000401CA071A079062803DAA17901208840BD
:100FA00000E03C2000EB4001C1EBC0104FF6FF71A8
:100FB00001EAC00909F2F3104FF4FA7190FBF1F065
:100FC000208100BF00BF5046BDE8FE8FF800002022
:100FD000A4A90008A8A90008FC00002070B50D48CD
:100FE000056814E06C6A8CB12089012803DD208932
:100FF000401E20810AE02089012807D12089401E57
:10100000208100BF00BF284600F02FFF2D68002D73
:10101000E8D170BD8800002070B505460E466C6AA8
:101020000020206260621A48C07810B11948C06878
:10103000A0621748007918B116480069E06202E022
:10104000A06A4008E0621248407918B1114840692E
:10105000206304E0A06AC0EBC000C00820633069D0
:10106000E0610B48807938B10A49886903F0D6FFFE
:1010700020620120E07101E00020E0710448C079A5
:1010800020B10449C86903F0C9FF606270BD000067
:10109000F000002064D5002070B50446656A00BFEA
:1010A00000BF0C21284600F0F9FD054B1A461146F9
:1010B000204604F0D5FB2046FFF702FF70BD00007C
:1010C000A4A9000870B505460E466C6A00BF00BFB3
:1010D0000B48807880B1002020810A49886803F09D
:1010E0009DFFA06100BF00BF3069E06100BF00BF8D
:1010F000284600F0EDFC01E000BF00BF70BD00001D
:10110000F000002064D5002010B51848007828BBF6
:1011100000BF00BF09F00EF81549086008460068D6
:1011200010B94FF0FF3010BD11480068407A40F010
:1011300020000F490968487244220E490C48006893
:1011400008F0E6FD43220B490948006808F054FE08
:10115000002209490648006809F026F8034800788B
:10116000401C024908700020DDE70000000100205B
:10117000FC000020A4A900089517000830B500BFA6
:1011800000BF0446451CA8B20A550446451CA8B237
:101190000B5530BD10B500BF00BF0346441CA0B2C4
:1011A000CA5410BD30B500BF00BF150E0346441C25
:1011B000A0B2CD54C2F307450346441CA0B2CD549F
:1011C000C2F307250346441CA0B2CD540346441C79
:1011D000A0B2CA5430BD30B500BF00BF150A0346E7
:1011E000441CA0B2CD540346441CA0B2CA5430BD26
:1011F00070B504460D461646FF222046611C8CB28F
:101200002A5404E000222046611C8CB22A54442C4B
:1012100002D304F0030008B1442CF3D304F1F0002E
:1012200081B2304604F09AFF70BD00002DE9F04F06
:101230008BB08146002006900590C94800210160CE
:101240004160B9F80A002C2803D2881E0BB0BDE813
:10125000F08FD9F8040004904FF0F00AB9F80800B4
:10126000079000BF4C46CDF820A00AE06089AAEBA9
:1012700000001FFA80FA61890798401A80B207902F
:10128000246814B160895045F0DD14B96FF0010095
:10129000DCE755460798099060680A9024E10A98AF
:1012A000405D039000274FF0FF38A81C1FFA80FB19
:1012B000AB4501DAB81EC9E76189681C814203DDCC
:1012C000691C0A98465C07E0206818B120684068ED
:1012D000007800E00020064637460398342834D0D2
:1012E00007DC78B1012811D0032819D0332866D142
:1012F00021E035283BD0362843D03A284BD03B2834
:101300005DD152E00020064607465EE000BF042E95
:1013100002D06FF0050099E700BF4FF0060854E0D7
:10132000042700BFBE4202DA6FF005008EE700BF5F
:101330004FF0070849E000BF042E02D06FF005000F
:1013400084E700BF4FF003083FE000BF012E02D04A
:101350006FF005007AE700BF00BF0898F02802D0C0
:101360006FF0050072E700BF4FF000082DE000BFEE
:10137000012E02D06FF0050068E700BF4FF00108B2
:1013800023E000BF042E02D06FF005005EE700BF2F
:101390004FF0020819E000BF042E02D06FF00500E4
:1013A00054E700BF4FF004080FE000BF042E02D046
:1013B0006FF005004AE700BF4FF0050805E0002781
:1013C00000BF00BF00BF00BF00BF00BF039810B93F
:1013D000681C85B26CE0A819801CB0F5803F02DB68
:1013E0006FF0010032E7A819801C85B2002F5FDD85
:1013F0000020029000BF00BF00BF594810F808004D
:10140000B0BB042F01DA384600E0042001905B46AF
:1014100002A92046019A04F0C5FC014601988142C8
:1014200002D06FF0010011E7042F27DD00BFF9178C
:1014300007EB91718910A7EB810111B16FF00500E5
:1014400004E700BF0120464901F80800029803F0B4
:10145000E5FD444941F82800381FC7B20BF10400EC
:1014600080B200900098584503DA6FF00100EDE675
:101470001DE0DDF800B008F10108BCE7042F04D13D
:10148000029803F0CBFD029009E000BF012F02D0CB
:101490006FF00500DAE600BF9DF808000290012019
:1014A0002F4901F808002F49029841F8280000BF91
:1014B0006089A84217DC6089281A85B26189099879
:1014C000401A80B209900998854209DA246800BF61
:1014D00014B96FF00500B9E600BF60680A9002E039
:1014E0006FF00100B2E600BF3CB10998854204DA12
:1014F0000A98405DFF287FF4D2AE19480078D0B139
:10150000184908680021164A1170012803D10121E9
:10151000069100BF0EE0022803D10121059100BF12
:1015200008E0032804D101210591069100BF01E0E4
:1015300000BF00BF00BF069830B1002006904FF0FA
:101540006C0AEC2007908DE6059830B100200590DC
:101550004FF02C0A6C20079084E6002076E600000D
:10156000F000002064D500202DE9FC4707467C6A86
:1015700000BF00BF0421204600F090FB01AB032216
:1015800021463846FFF776FB0546002D44D06E68AD
:101590000223392206F1F001BDF80400FFF7EEFD49
:1015A00001903A8D06F1F001BDF80400FFF713FE3B
:1015B00001900323372206F1F001BDF80400FFF784
:1015C000DDFD01904FF000080DE0254810F80820DF
:1015D00006F1F001BDF80400FFF7DCFD019008F111
:1015E000010000F0FF08B8F1030FEED32A4606F120
:1015F000F001BDF80400FFF7FBFD4323194A29461B
:1016000019480097006808F025FE8146284604F036
:101610002FFD00BF00BF03E000BF00BF4FF0FF3948
:10162000A079FF2802DAA079401CA071A0790A28CD
:1016300005DAA0794FF47A7110FB01F001E042F273
:1016400010701FFA80FA0AF2F3104FF4FA7190FB4F
:10165000F1F0208100BF00BF4846BDE8FC870000D4
:10166000F8000020A8A90008FC0000202DE9FC5F7C
:101670008046D8F8244000BF00BF0321204600F078
:101680000DFB01AB032221464046FFF7F3FA064665
:10169000002E56D075680223392205F1F001BDF8FD
:1016A0000400FFF76BFD01904FF4107205F1F0019B
:1016B000BDF80400FFF78FFD01900423322205F1ED
:1016C000F001BDF80400FFF759FD0190E06903F057
:1016D000A5FC83465A4605F1F001BDF80400FFF76A
:1016E00061FD01900323372205F1F001BDF80400EC
:1016F000FFF744FD019000270AE02348C25D05F191
:10170000F001BDF80400FFF745FD0190781CC7B259
:10171000032FF2D3324605F1F001BDF80400FFF7C4
:1017200067FD4323194A31461948CDF80080006807
:1017300008F090FD8146304604F09AFC00BF00BFDF
:1017400003E000BF00BF4FF0FF39A079FF2802DAA5
:10175000A079401CA071A0790A2805DAA0794FF47D
:101760007A7110FB01F001E042F210701FFA80FA6A
:101770000AF2F3104FF4FA7190FBF1F0208100BFF0
:1017800000BF4846BDE8FC9FF8000020A8A900085B
:10179000FC0000202DE9F05F1646DDF828B0514826
:1017A00047687C6AD6F804900CB1207900B994E0BF
:1017B00000BF00BF00BF00BF00BF00BF00BF00BF31
:1017C00070892C2802DA00BF00BF86E099F800007B
:1017D000022802D000BF00BF7FE000250CE007F127
:1017E0002A00415D09F11C00405D814202D000BF2A
:1017F00000BF72E0681CC5B297F83000A84201DD56
:10180000062DECD3D9F8040003F008FC21688842C7
:1018100002D000BF00BF60E021463046FFF706FD62
:1018200010B100BF00BF58E000BF00BF2E48407895
:1018300010B900BF00BF50E0D6F804A02B4890F8C4
:101840000480B8F1050F26D100BF00BF60790128E0
:1018500010D151463846FFF7DFFB97F8310000F012
:10186000080018B13846FFF7A3F935E03846FFF70E
:10187000F7F831E06079032805D06079042802D0B8
:101880006079052828D151463846FFF7C5FB384610
:10189000FFF7E6F820E0B8F1060F11D160790328D0
:1018A00008D06079012805D06079042802D06079D9
:1018B000052805D100BF00BF3846FFF7EDFB0BE060
:1018C000B8F1020F08D16079062805D100BF00BF2A
:1018D00051463846FFF7F6FB00BF304604F0C8FB20
:1018E000BDE8F09F403E0020F000002064D50020BD
:1018F0002DE9FE430646746A00BF00BF0CB9BDE87F
:10190000FE83607900B9FAE7A06902900020A06127
:10191000E061206260622063E062A062A082608277
:101920002082E081304600F03FFA00283FD00021BD
:10193000204600F0B3F901AB072221463046FFF7FD
:1019400099F9054655B36F680423362207F1F00173
:10195000BDF80400FFF712FC0190029803F05EFB53
:101960008046424607F1F001BDF80400FFF71AFC7B
:1019700001902A4607F1F001BDF80400FFF738FC9A
:10198000432302AA294610480096006808F062FC2A
:10199000284604F06DFB00BF00BF01E000BF00BFA0
:1019A0000A4B1A461146304603F05AFF03E0002165
:1019B000204600F073F9207918B1FFF709FA0020EA
:1019C000207100BF9BE70000FC000020A4A90008D4
:1019D0002DE9FC4707467C6A00BF00BF0521204671
:1019E00000F05CF901AB032221463846FFF742F9CB
:1019F0000546002D45D06E680223392206F1F0011C
:101A0000BDF80400FFF7BAFB01903A8D06F1F00132
:101A1000BDF80400FFF7DFFB01900323372206F136
:101A2000F001BDF80400FFF7A9FB01904FF000089A
:101A30000DE0254810F8082006F1F001BDF804007B
:101A4000FFF7A8FB019008F1010000F0FF08B8F1D2
:101A5000030FEED32A4606F1F001BDF80400FFF7AC
:101A6000C7FB432304F11802294618480097006871
:101A700008F0F0FB8146284604F0FAFA00BF00BFE8
:101A800003E000BF00BF4FF0FF39A079FF2802DA62
:101A9000A079401CA071A0790A2805DAA0794FF43A
:101AA000FA6110FB01F001E044F620601FFA80FAB1
:101AB0000AF2F3104FF4FA7190FBF1F0208100BFAD
:101AC00000BF4846BDE8FC87F8000020FC0000206D
:101AD0002DE9FE4F074600BF47B900BF5DA0FEF7E6
:101AE000C7FB00BF6FF00F00BDE8FE8F00BF7C6A30
:101AF00000BF3CB900BF5EA0FEF7BAFB00BF6FF0AD
:101B00000500F1E700BF00BF00BF0121204600F043
:101B1000C5F802AB032221463846FFF7ABF806466C
:101B2000002E71D075680223392205F1F001BDF84D
:101B30000800FFF723FB02903A8D05F1F001BDF894
:101B40000800FFF748FB02900423322205F1F00160
:101B5000BDF80800FFF712FB0290E06903F05EFA9F
:101B600083465A4605F1F001BDF80800FFF71AFB5D
:101B700002900423362205F1F001BDF80800FFF7BA
:101B8000FDFA0290A06903F049FA83465A4605F12E
:101B9000F001BDF80800FFF705FB02900323372290
:101BA00005F1F001BDF80800FFF7E8FA02904FF0E8
:101BB00000080DE0354810F8082005F1F001BDF8E7
:101BC0000800FFF7E7FA029008F1010000F0FF08B3
:101BD000B8F1030FEED3324605F1F001BDF808006D
:101BE000FFF706FB2A4843232A4A3146CDE9007015
:101BF0002948006808F0BCFB8146304604F038FAFA
:101C000000BF00BF04E0FFE700BF00BF4FF0FF3997
:101C1000A079FF2802DAA079401CA071A0790628DB
:101C200003DAA1790120884000E03C2000EB40016C
:101C3000C1EBC0104FF6FF7101EAC00A0AF2F310BF
:101C40004FF4FA7190FBF1F0208100BF00BF4846CD
:101C50004AE70000646863705F73656C6563743A9B
:101C6000206E6574696620213D204E554C4C000065
:101C7000646863705F73656C6563743A206468635D
:101C80007020213D204E554C4C000000F8000020F3
:101C9000A4A90008A8A90008FC00002042798A42F3
:101CA00003D04171002282710281704770B50446F1
:101CB00000BF3CB900BF2FA0FEF7DAFA00BF6FF0FB
:101CC0000F0070BD00BF00BF94F8310000F00100AC
:101CD00038B900BF2BA0FEF7CBFA00BF6FF00F00A2
:101CE000EFE700BF656A00BF00BF208DB0F5107F31
:101CF00004DA00BF00BF4FF0FF30E2E775B900BF64
:101D000000BF342003F0C2FA054625B900BF00BF6A
:101D10004FF0FF30D5E7656200BF05E000BF00BFB0
:101D2000287908B1FFF754F834212846FEF7AFFBB5
:101D300000BF00BFFFF7E8F910B14FF0FF30C0E778
:101D40000120287194F83100C0F3800028B90221E5
:101D50002846FFF7A3FF0020B3E72046FFF7B0F8BF
:101D600006462EB12046FFF7C3FD4FF0FF30A8E72F
:101D70003046A6E76E6574696620213D204E554CBD
:101D80004C0000006E65746966206973206E6F7484
:101D90002075702C206F6C64207374796C652070D2
:101DA0006F72743F00000000014679B1486A68B163
:101DB0004A6A50790A2805D05079052802D050790E
:101DC000042801D1012070470020FCE70020FAE739
:101DD00070B505466C6A00BF00BF6079012805D068
:101DE00060790A2802D06079052815D100BF00BFAC
:101DF0002846FFF7EDFDA189628A881A00EBD071B1
:101E00000122B2EB610F07DCA189628A881A00EB1C
:101E1000D071C1F34F01E18170BD70B505466C6AA8
:101E200000BF00BF6079012808D060790A2805D07A
:101E30006079052802D06079042815D100BF00BF61
:101E40002846FFF791FBA18A628A881A00EBD071BD
:101E50000122B2EB610F07DCA18A628A881A00EBCB
:101E6000D071C1F34F01218270BD70B505466C6A17
:101E700000BF00BF60790C2802D06079062805D128
:101E800000BF00BF2846FFF71BF831E0607901284A
:101E900011D100BF00BFA079052803DC2846FFF759
:101EA00017FE25E000BF00BF2846FFF721FD2846AA
:101EB000FFF7FCFE1CE0607908280CD100BF00BFD2
:101EC000A079012803DC2846FEF772FE10E02846C0
:101ED000FEF7C6FD0CE06079032809D1A07902283D
:101EE00003DA2846FFF7C2FB02E02846FEF7E8FFC8
:101EF00070BD0A4600BF00BF1146C3681B680B6077
:101F0000C368196070470246D068016831B108683B
:101F1000D368186000BF00BF0846704700BF00BF0D
:101F20000020FAE70020134908681349084000BF61
:101F30001049086000210F4A51609160D16011463C
:101F400088694FF64171084040F080001146886171
:101F50000021D161094988690949084040F00870A9
:101F6000064988610868074908400748034908602E
:101F700070470000008002400F8130FD0090024059
:101F8000233FDEF87D0000F80060C10210B540F28A
:101F9000194004F01DFB40F2194004F007FB00F06B
:101FA000E9FB10BD08B500210091009002E0009906
:101FB000491E009100990029F9D108BD02464FF051
:101FC000FF30062927D2DFE801F022200B03071E8D
:101FD0009388C3F30C001FE05368C3F30C401BE06D
:101FE0001368C3F30D4004280BD9001F0B4B1B686B
:101FF00003F0007333B1137803F0200313B1001D15
:1020000000E0002008E0906806E0906804E01378A3
:10201000C3F3C30000E000BF00BF70470080024070
:102020002DE9F043044600210025002600278C46B8
:10203000B4F5E00F0FD12348234B052540F2F456A9
:102040004FF48017DFF88480C8F81000DFF8808034
:10205000C8F800000FE01F481F4B052540F2F4565A
:10206000EF0744F2F45CDFF86480C8F80C00DFF896
:102070006C80C8F800004FF00008DFF86490C9F8E1
:102080000080DFF86090C9F80080002115E000EBC7
:1020900001121760C2F804C001FB0638C2F80880BC
:1020A000A5F10108884506D900EB011808F11008D0
:1020B000C2F80C8000E0D060491CA942E7D3BDE81B
:1020C000F083000064010020781F0020009002408F
:1020D0000400002014010020B401002008000020AA
:1020E000100000200C00002000B500F06BFD00F097
:1020F0007FFC00BD30B503460C4600210022384865
:102100000068006800F0004008B1002030BD002BDE
:1021100034D033480068008800F4004060BB304889
:102120000068008800F4807030B32D480068008893
:1021300000F4007000B32A4800680068C0F30D4244
:10214000121F2848006800F0007030B12448006871
:10215000007800F0200000B1121DA24201D9002039
:10216000D4E7002105E01E4800688068405C5854B0
:10217000491C9142F7D301E00020C7E74FF000402F
:10218000174D2D6828601848406900F0800020B184
:102190008020154D68610020A86011480068808883
:1021A00000F4804028B10E480068C0680C4D2860DB
:1021B00014E00B480068808800F4004020B10A4811
:1021C000C068074D286009E007480068C0F384052F
:1021D0000348006810302844014D2860012095E72D
:1021E00008000020008002400090024070B50346C5
:1021F00000222F480068006800F0004008B100206D
:1022000070BD40F2F450814201D90020F8E74BB193
:10221000002205E0985C264E3668B668B054521C21
:102220008A42F7D32248006841602148006800686C
:1022300040F040501E4E366830601D48006800680F
:1022400040F000401A4E366830601A48406900F08D
:1022500004051848406900F0200405B92CB145EA8E
:102260000400144E7061002070601148006800681E
:1022700000F4801028B10E480068C0680C4E306031
:1022800014E00B480068006800F4001020B1094811
:102290000069074E306009E006480068C0F3840614
:1022A0000348006810303044014E30600120A7E739
:1022B000040000200090024010B54FF4406004F08C
:1022C00063F940F6014004F05FF940F6024004F083
:1022D0005BF940F6034004F057F941F20E1004F0A8
:1022E00053F94FF0C061081104F0AEF84FF400004C
:1022F00004F04CFB022300221946504801F051FA29
:102300000223032200214D4801F072FA0423002227
:1023100002214A4801F045FA0423032200214748DC
:1023200001F066FA802300220221444801F039FAC4
:10233000802303220021414801F05AFA02220B2196
:102340003E4801F0FFF904220B213C4801F0FAF964
:1023500080220B21394801F0F5F94FF40063002287
:102360000221374801F01DFA4FF4006303220021D7
:10237000334801F03DFA4FF4005300220221304867
:1023800001F00FFA4FF40053032200212C4801F012
:102390002FFA4FF4805300220221294801F001FA5C
:1023A0004FF4805303220021254801F021FA4FF415
:1023B00000620B21224801F0C5F94FF400520B21B5
:1023C0001F4801F0BFF94FF480520B211C4801F067
:1023D000B9F90223002219461A4801F0E2F9022352
:1023E00003220021174801F003FA102300220221E2
:1023F000144801F0D6F9102303220021114801F0FE
:10240000F7F92023002202210E4801F0CAF9202307
:10241000032200210B4801F0EBF902220B210948AD
:1024200001F090F910220B21064801F08BF92022CF
:102430000B21044801F086F910BD000000000240A5
:1024400000040240000802402DE9FE4F81468A4602
:102450009346002400250026A04600270020029075
:102460000190009000F004FA40B9B748FFF79AFDD8
:1024700000F0FEF910B90098BDE8FE8FFFF752FD9D
:10248000C846B8F1010F5FD100BF02AB012211466F
:10249000002000F059FABDF8080000F00400029096
:1024A0007F1CBDF8080010B9A8488742EDD3A748A3
:1024B000874201D10098DFE700274FF48050029057
:1024C00002AB00220121022000F03EFA01900198A7
:1024D00008B90098D0E700BF02AB012211460020E6
:1024E00000F032FABDF8080000F0200002907F1CD6
:1024F000BDF8080010B995488742EDD3934887424C
:1025000001D10098B8E7002702AB1E22012100206C
:1025100000F01AFABDF8080000F0040010B14FF402
:10252000006801E04FF00008BDF8080000F001006D
:1025300000B101E048F480488548046824F4B044C0
:1025400044EA0804046001E002F0E0F90AF4806063
:1025500070B17F48006840F480607D4908607D4824
:10256000846924F080640AF08060044379488461BF
:102570007748406840EA0B00754948607648007823
:1025800000F00100A8B174484568084604682E466A
:1025900072480440C04306403443084604606D4816
:1025A00084692E4624F0C00406F4407644EA96047A
:1025B00084616948007800F0020040B1664886688E
:1025C00064480468664804403443624804606248D2
:1025D000007800F0040040B15F48C6685D480468B8
:1025E0006048044034435B4804605B48007800F076
:1025F000080048B158480669564804684CF2020081
:1026000084433443534804605348007800F010007A
:1026100040B1514846694F488469534804403443A7
:102620004C4884614C48007800F0200098B14A483A
:102630008569484884692E464C480440C04306409A
:1026400034434448846104682E4624F0800406F034
:102650008006344304604048007800F0400038B100
:102660003D48C5693A48C4696FF310042C43C461FE
:102670003948007800F08000C0B13748056A344816
:1026800084692E464FF641700440864334433048F7
:1026900084613048803004682E4624F0770406F4C4
:1026A000EE4644EA16242B48C0F880402A480088A9
:1026B00000F4807018B12848406A2549886026488F
:1026C000008800F4007018B12348806A2049C8606F
:1026D0002148008800F4806048B11F48C56A1C4842
:1026E000446840F2DE7084432C43194844601A4821
:1026F000008800F4006040B11748056B1448046876
:102700001B4804402C43124804601348008800F41E
:10271000805038B11048456B0D48046824F44004DB
:102720002C4304600C48008800F4005038B10A487B
:10273000856B0748046824F460242C43046001205E
:102740000090009898E60000FFFF8F00FFFF040054
:1027500000800240009002403C3D00207FFFFFFDD2
:10276000FFFFFEF8FFC001FFE73FDEFDFBFFFFFEBE
:102770008FDDFEFF00200849086048608860C8605F
:10278000086148618861C861086248628862C862FD
:1027900008634863886370473C3D002041F21C0198
:1027A000B1EB901F0DD10E4A02EB9011096800F0B9
:1027B0001F0301229A401143094B03EB9012116051
:1027C0000CE0074A02EB9011096800F01F03012298
:1027D0009A409143024B03EB901211607047000046
:1027E0000080024000F01F0201219140024B03EBE8
:1027F0009012116070470000008002400A794B7906
:1028000042EA0322084B03441A64CA7812068B7802
:1028100042EA03424B7842EA03220B781A43024B06
:1028200003445A64704700000080024010B5002441
:1028300040F6194003F0A8FE40F61A4003F0A4FE4B
:1028400040F61B4003F0A0FEFFF7A0FB00F084F968
:1028500004460CB900BFFEE7002211464FF4904039
:10286000FFF7F2FD0149086010BD000020000020C4
:10287000F8B500262C48056925F01C05012003F059
:10288000F1FD04462948844205D32948844202D2F6
:1028900045F0080526E02648844205D325488442B1
:1028A00002D245F00C051DE02248844203D32248A1
:1028B000844200D216E02048844205D31F48844257
:1028C00002D245F004050DE01C48844202D31C48A6
:1028D000844202D31A48844202D145F0100501E037
:1028E0003046F8BD104805614FF4004000906B463B
:1028F00000220121022000F027F808B93046F0E755
:102900001048FFF74FFB6B4600220121104600F0F4
:102910001BF808B93046E4E7BDF8000000F40040B9
:1029200000B901263046DCE700800240002D31016D
:10293000C00E16020087930300E1F50580D1F00870
:10294000001C4E0EFFFF04002DE9F04104460D4629
:1029500000270020DFF884C0DCF810104FF6C37C9D
:1029600021EA0C014FF4F86C0CEA821C4CEA040CCE
:102970004FF4784808EAC5284CEA080C4CF0010CE2
:102980004CEA0101022C05D1B3F800C0DFF84C80FD
:10299000C8F814C0DFF844C0CCF8101000BFDFF84E
:1029A0003CC0DCF810C00CF001067F1C1EB1DFF843
:1029B00030C06745F3D1DFF824C0DCF810C00CF05C
:1029C000010CBCF1000F00D101202CB9DFF80CC0C4
:1029D000DCF814C0A3F800C0BDE8F081008002401C
:1029E000FFFF0400416821F0004141607047000092
:1029F0000648006840F00400044908600448806903
:102A000040F00200024988617047000000800240E7
:102A1000009002404FF000402649096808602548B0
:102A20000068808800F48040E8B123480068A0B1C5
:102A300021480068C0681F4908601F480068006896
:102A400028B11D48006800681B49086030E01A483A
:102A500000681030184908602AE016480068C0680D
:102A60001449086024E013480068808800F400409E
:102A700060B11248C0680F4908600F480068B8B1DB
:102A80000D48006800680C49086011E00B480068B8
:102A9000C0F3840107480068103008440549086005
:102AA0000548006820B104480068103002490860F9
:102AB0007047000008000020100000200090024035
:102AC00000B5002321480068026802F0004008B108
:102AD000002000BD02F4004028B902F4807010B15B
:102AE00002F4007018B9FFF795FF0120F1E702F03A
:102AF000200030B102F0010018B1FFF78BFF012078
:102B0000E7E702F00040A8B902F4004090B902F4EF
:102B1000807078B102F4007060B1C2F30D431B1FE6
:102B20000B48006800F0007068B102F0200050B15E
:102B30001B1D08E007480068401C06490860FFF7B5
:102B400069FF0120C5E71846C3E700000800002020
:102B5000008002401400002010B5002100200B4B23
:102B60001B6843F00103094C236000BF074B1B683F
:102B700003F00102491C12B1054B9942F6D1034BF7
:102B80001B6803F0010303B9012010BD009002404F
:102B9000FFFF040010B502F0CFFEFFF78DFBFFF73B
:102BA00045FE0648006808B900BFFEE70448FFF785
:102BB000F5FD03480A38FFF7F1FD10BD20000020A5
:102BC0001007040000B50748006840F008000549F8
:102BD000086000F00BF80448806940F40050024996
:102BE000886100BD008002400090024010B50022C4
:102BF0000020094B9B6943F48013074CA36100BF7D
:102C0000054B9B6903F48011521C11B1034B9A428E
:102C1000F6D301B9012010BD00900240FFFF04006F
:102C20002DE9FE4F0546884616464FF00A09CA466A
:102C30000A270024BB46002002900190009000BFAC
:102C400068E004EB44005A4A02EBC000017D0A2F01
:102C500004D119B900BF00BF274659E0002957D059
:102C600000BF00BFB5B104EB4402514B03EBC202FD
:102C70002868526890420DD13EB104EB44001A46D8
:102C800002EBC0008068B04204D100BF00BF204604
:102C9000BDE8FE8F012928D104EB4400444A52F8D4
:102CA000300080B104EB440002EBC000428A02987D
:102CB00082422DDBA34604EB44003D4A02EBC000F8
:102CC000408A029024E004EB4400394A02EBC00041
:102CD000428A019882421BDBA14604EB4400344A3D
:102CE00002EBC000408A019012E0022910DB04EBE5
:102CF00044002F4A02EBC000428A0098824207DB60
:102D0000A24604EB44002A4A02EBC000408A00902D
:102D1000601C04B20A2C94DB08F0020020B90A2FD0
:102D200007D108F0010020B900BF00BF4FF0FF300D
:102D3000AEE70A2F02DA3C4600BF1DE0BAF10A0FE7
:102D400004DA544600BF00BF00BF10E0B9F10A0F1B
:102D500002DA4C4600BF0AE0BBF10A0F02DA5C4619
:102D600000BF04E000BF00BF4FF0FF3090E700BF9E
:102D700000BF204600F01EF800BF00BF00BF00BF2C
:102D800035B104EB44010A4A02EBC10128684860EE
:102D9000002004EB4401064A02EBC101488204EB27
:102DA0004400114601EBC0008660204670E7000039
:102DB00084D5002010B5044604EB4400194951F8AD
:102DC000300070B100BF00BF04EB4401154A52F857
:102DD000310003F04DF9002004EB4401114A42F8A0
:102DE0003100002004EB44010E4A02EBC1010875DA
:102DF00004EB440102EBC101488204EB440102EB05
:102E0000C101886004EB440102EBC101486004EB9E
:102E10004400114601EBC00003490A68C26089887A
:102E2000018210BD84D50020B2A90008F0B587B09A
:102E300007460D4600BF35B900BF35A0FDF718FAAB
:102E400000BF07B0F0BD00BF7C682088B0F5807F70
:102E500008D12079062805D16079042802D160883C
:102E6000082805D000BF00BF384603F001F9E8E7A5
:102E7000D4F80E000690A0690590686808B900268D
:102E800007E005986968884201D1012000E0002030
:102E900006460EB1012000E00220034604F10802BC
:102EA00006A9284600F002FBE088B0F5807F03D039
:102EB000B0F5007F22D11AE000BF00BF86B1022228
:102EC00006AB04F10800291DCDE90232CDE900105E
:102ED00005F12A0302462631284600F0FFF905E0F5
:102EE000686808B900BF01E000BF00BF09E000BF8B
:102EF00000BF06A92846FDF78BFD02E000BF00BF1A
:102F000000BF00BF384603F0B3F800BF99E70000E8
:102F10006E6574696620213D204E554C4C000000C2
:102F20002DE9FE43044689461546A84600BF00BF6A
:102F300000BF00BF00BF00BF2146286800F085FE2B
:102F400008B1494F85E0287800F0F000E02815D15D
:102F500001208DF8040000208DF805005E208DF81A
:102F60000600687800F07F008DF80700A8788DF8DB
:102F70000800E8788DF8090001AF69E02868A168C9
:102F80000840D4E90112114088420ED0288880B24E
:102F90004FF6A961884208D0E06810B104F10C082E
:102FA00003E06FF00300BDE8FE833048007800EBDB
:102FB00040002F4901EBC000007D02281BDB2B489D
:102FC000007800EB400001EBC0008068A04212D105
:102FD0002649097801EB4101254A02EBC101D8F8E5
:102FE00000004968884206D12048027849462046B8
:102FF00000F040F8D7E7002622E006EB46001C4927
:1030000001EBC000007D022818DB06EB460001EB57
:10301000C0008068A04211D106EB4601144A02EBC1
:10302000C101D8F800004968884207D10F480670EE
:1030300032464946204600F01DF8B4E7701CC6B27F
:103040000A2EDADB4A464146204600F06FF8AAE72E
:1030500000BF4FF400603B4604F12A02494600904D
:10306000204600F0F5FA9EE7ACA900080801002010
:1030700084D50020F8B505460E46144600BF00BFB3
:1030800004EB4400284901EBC000007D022839D13F
:1030900004EB440001EBC000408AB0F58E7F11DDE7
:1030A00004EB44000A4602EBC000011D284600F074
:1030B00067F938BB032004EB44011B4A02EBC10152
:1030C00008751FE004EB4400174901EBC000408A7B
:1030D000B0F5877F16DB04EB44000B4603EBC00022
:1030E00000F10C0204EB440003EBC000011D284674
:1030F00000F054F930B9032004EB44010A4A02EB12
:10310000C10108754FF40060009004EB44000649CB
:1031100001EBC00000F10C0305F12A0231462846FC
:1031200000F096FAF8BD000084D500202DE9FC5F80
:1031300080460E46154608F12A0001904FF0FF3AEE
:103140004FF0000B4146306800F07FFD38B9307811
:1031500000F0F000E02802D00EB1306828B900BFBE
:1031600000BF6FF00F00BDE8FC9F424601213046D2
:10317000FFF756FD8146B9F1000F07DA00BF00BF27
:103180000DB100BF00BF4FFA89F0ECE700BF00BFF0
:1031900009F0FF0404EB44004E4901EBC000007D40
:1031A00078B94FF0010B012004EB4401494A02EBCE
:1031B000C101087504EB4400114601EBC000C0F8E2
:1031C000088000BF00BFBBF1000F00D1F5B9314648
:1031D000404600F0D5F88246BAF1000F13D104EB57
:1031E00044003C4901EBC000007D01280BD1BBF13C
:1031F000000F08D100BF00BF002004EB4401354A96
:1032000002EBC10148820DB95046ACE700BF00BFD8
:1032100004EB44002F4901EBC000007D022811DBC4
:103220002D4804704FF40060009004EB440001EB63
:10323000C00000F10C0329464046019A00F008FA4C
:10324000824644E004EB4400224901EBC000007DCB
:1032500001283CD1002000902F4609E000BF00BFAC
:10326000387B00F0400010B10120009002E03F6880
:10327000002FF3D100BF009838B12A464FF42071D7
:103280000E2002F051FD074603E02F46384602F0BB
:10329000A5FFBFB104EB44000E4951F8300040B126
:1032A00000BF00BF04EB44010A4A52F8310002F0AB
:1032B000DFFE04EB4400074941F830704FF0000A8C
:1032C00000BF03E000BF00BF4FF0FF3A00BF504611
:1032D00049E7000084D50020080100202DE9FC5FAB
:1032E00081460E4617469846DDE90CAB002001905A
:1032F00000BF00BF4FF420721C210E2002F0DAFB49
:1033000005462DB900BF00BF4FF0FF30BDE8FC9F60
:1033100000BF00BF6C6800BF00BF0F9801F08BFEBC
:10332000E08000BF00BFD8F80000A060B8F804003B
:10333000A081DBF80000C4F81200BBF80400E082B2
:10334000DAF80000C4F80E000E980068A0614FF48F
:103350008070208008206080062020710420607129
:1033600040F606003B46324629460090484600F0AB
:103370006FF9284602F07CFE00250198C6E70000A0
:1033800070B504460D4600BF00BF034A29462046DB
:1033900000F004F870BD0000ACA900087FB5044639
:1033A0000D4616460121074A201D04F12A038DE827
:1033B00025000391324619462046FFF78FFF04B0DF
:1033C00070BD0000B2A9000870B500BF00BF0024A6
:1033D00066E004EB4400344901EBC000057D002D9C
:1033E0005DD004EB440001EBC000408A401C04EBBC
:1033F00044012D4A02EBC101488204EB440011460E
:1034000001EBC000408AB0F5967F0DDA04EB440072
:1034100001EBC000007D01280CD104EB440001EB5E
:10342000C000408A052805DB00BF00BF2046FFF72B
:10343000C1FC34E004EB44001B4901EBC000007DFB
:10344000032807D1042004EB4401174A02EBC10111
:10345000087524E004EB4400134901EBC000007D33
:10346000042807D1022004EB44010F4A02EBC101FA
:10347000087514E004EB44000B4901EBC000007D2B
:1034800001280CD104EB44020B4603EBC202111DD0
:1034900004EB440203EBC2029068FFF771FF641C67
:1034A0000A2C96DB70BD000084D500202DE9F8437E
:1034B00006460D461746984600BF00BF00BF00BF36
:1034C0005DB1286848B13146286800F0BEFB20B9DC
:1034D000287800F0F000E02805D100BF00BF6FF0B1
:1034E0000F00BDE8F883324641462846FFF798FBB7
:1034F0000446002C01DA60B2F3E7022004EB440139
:103500001C4A02EBC101087504EB4400114601EBB3
:10351000C000866000BF00BF04EB440001EBC000A8
:103520003968C160B9880182002004EB440102EBD4
:10353000C101488204EB4400114651F83000B0B19B
:1035400004EB440051F83090002004EB440142F8B1
:1035500031004FF400603B4606F12A0249460090D4
:10356000304600F075F8484602F082FD00BF0020AA
:10357000B7E7000084D500202DE9F04104460E464F
:103580004FF00E0860890E2800DC59E0E07B18B986
:1035900096F83400401CE073656800BF00BFAF8937
:1035A000287800F00100B0B12878012809D16878A6
:1035B00088B9A8785E280ED1607B40F01000607357
:1035C00009E0062221492846FCF7CEFE18B9607BA7
:1035D00040F008006073082F03D0B7F5C16F2AD1FF
:1035E00014E096F8310000F0080000B928E04146E8
:1035F000204602F0FDFD20B100BF00BF00BF00BFAC
:103600001EE03146204600F047FC15E096F83100F8
:1036100000F0080000B913E04146204602F0E8FD42
:1036200020B100BF00BF00BF00BF09E03146204607
:10363000FFF7FCFB00E003E000BF0020BDE8F081E5
:10364000204602F015FD0020F8E70000ACA90008B4
:103650002DE9F04706460D4617469846DDF82090BE
:10366000484601F0E8FC82460E21284602F0E4F9C3
:1036700000B117E06C68A4F80CA0D8F80000206036
:10368000B8F80400A0803868C4F80600B8886081E3
:1036900000BF00BF00BF00BF29463046B269904757
:1036A000BDE8F08700BF00BF6FF00100F8E7000041
:1036B00010B5044600BF00BF472084F83200442103
:1036C00033200155044860610448A061204601F0A0
:1036D0003BFA002010BD0000212F0008194C000803
:1036E00070B50446204601F067FA064616B94FF059
:1036F000FF3070BD214630462269904705462DB106
:1037000000BF00BF304602F0B3FC00262846F0E7B9
:1037100070B504460D46E1B2064A106806F0B6FFE1
:1037200000BF04490868072107F027F80028F8D0EF
:10373000204670BDD8A70008014800687047000007
:1037400000000020F0B503461C6A5D6A00200DE011
:103750000126864016403EB187000F26BE40B44386
:10376000860001FA06F63443461CB0B20828EFD3AF
:10377000082011E00126864016405EB1A0F108063F
:10378000B7000F26BE40B543A0F10806B60001FA07
:1037900006F63543461CB0B21028EBD31C625D62BE
:1037A000F0BDF0B504460D4616462168E2680020DB
:1037B00019E0012787401F409FB14FEA400C0327C3
:1037C00007FA0CF7B943470005FA07F739434FEA00
:1037D000400C032707FA0CF7BA43470006FA07F72D
:1037E0003A43471CB8B21028E3D32160E260F0BD31
:1037F000F0B50C461546012C03D146681E434660C1
:1038000002E046689E434660826800210DE0012682
:103810008E401E403EB14F000326BE40B2434E00D4
:1038200005FA06F632434E1CB1B21029EFD382607E
:10383000F0BD70B505460C4622460321284600F02F
:1038400005F970BD2DE9F04F85B004468A467E48E3
:1038500080680390039800780007870E142F02DA1F
:1038600000BF00BFE6E06089042802D200BF00BFAD
:10387000E0E06068057860684078049015B1082D34
:1038800071D100E0D1E0DFF8C09109F114096E4870
:10389000007D00F0F000E02802D100BF00BFCDE0C5
:1038A000694A1168506900F0D0F910B100BF00BF3B
:1038B000C4E000BF00BF2089082802D200BF00BFBB
:1038C000B8E0204600F02AF938B100BF00BF20461A
:1038D00002F0CEFB05B0BDE8F08F07F10E012046E7
:1038E00002F0AAF898B3208938441FFA80FB208997
:1038F000584502DD00BF00BFA0E04FF420725946DA
:103900000E2002F0D7F88046B8F1000F02D100BFB8
:1039100000BF93E0B8F80A1007F10800814205D211
:1039200000BF00BF404602F0A3FB87E03A46D8F84C
:1039300004000399FCF744FD3946404602F058FC68
:1039400030B100BF00BF404602F092FB76E010E0CD
:103950002146404602F000FA30B100BF00BF4046A9
:1039600002F086FB6AE04CE0204602F081FB444610
:1039700008E007F10E01204602F03AFC10B100BF4A
:1039800000BF5BE066683946204602F055F808B192
:1039900000BF35E0D4F80480D9F80000C8F80C0066
:1039A00029480069C8F810000020307070884FF670
:1039B000F771884203DD70880930708002E07088FA
:1039C00008307080FF2088F808000020A8F80A005E
:1039D0003946404600F098F8A8F80A000120002176
:1039E000FF230A46CDE9010A00914946204600F02E
:1039F00081FB8346BBF1000F01D000BF00BF00BFB9
:103A000013E0032D0ED00B2D0CD00C2D0AD0042D5D
:103A100008D0052D06D00D2D04D00E2D02D0112D6D
:103A200000D000BF00BF00BF00BF00BF204602F0B3
:103A30001FFB4FE7204602F01BFB4BE7204602F03E
:103A400017FB00BF46E70000403E00202DE9FF5F66
:103A50000646894692464FF01C083089404501DAF7
:103A6000B6F8088008F1080081B24FF420722220D5
:103A700002F020F805461DB900BF00BFBDE8FF9F5A
:103A800000BF00BFD6F804B000BF00BF00BF00BF3A
:103A900000BF00BF00BF00BF00BF00BF6C6884F85C
:103AA000009084F801A00020A080E08071686A681E
:103AB00002F108004246FCF783FCDBF80C0003909F
:103AC00003A800F0E9FC074687B1002060806989FF
:103AD000204600F019F8608001200021FF2303AA8E
:103AE000CDE901070091284600F004FB284602F0CA
:103AF000BFFA00BFC2E770B505460C4622460B214F
:103B00002846FFF7A3FF70BD30B504460D46294691
:103B1000204601F0CFFAC04380B230BDF0B5064672
:103B200000270024354619E06989686801F0C2FA67
:103B30000444A0B200EB1444688900EBD071491032
:103B4000A0EB410149B10FB9012000E00020074678
:103B5000E0B2C4F3072141EA00242D68002DE3D12F
:103B600027B1E0B2C4F3072141EA0024E04380B268
:103B7000F0BD2DE9F0470746884691461E46DDF820
:103B800020A03568ACB24FF6FF7000EA154004443F
:103B9000DAF80050A8B204444FF6FF7000EA15406E
:103BA0000444A0B200EB1444A0B200EB144423463A
:103BB0004A464146384600F002F8BDE8F0872DE954
:103BC000F04706460F4690461C464FF00009354622
:103BD0001DE000BF00BF6989686801F06BFA04440A
:103BE000A0B200EB1444688900EBD0714910A0EB3F
:103BF000410159B1B9F1000F01D1012000E00020CD
:103C00008146E0B2C4F3072141EA00242D68002D6B
:103C1000DFD1B9F1000F04D0E0B2C4F3072141EACB
:103C20000024384601F007FA0444404601F003FA44
:103C30000444A0B200EB1444A0B200EB144400BF53
:103C400000BFE04380B2BDE8F08718B5024600929D
:103C5000D04300B10AB9012018BD91F8310000F03D
:103C6000020008B90020F7E74868904201D100201F
:103C7000F2E700988B681840D1E90134234098425C
:103C800008D1886822EA00008C68E343984201D199
:103C90000120E1E70020DFE72DE9F74F8CB0044673
:103CA00088464FF00009B8F82810A1F11400C11798
:103CB00000EB5171C1F3CF0A1420059060680990A0
:103CC000099D287800F00F001421B1EB800F04D07B
:103CD0006FF005000FB0BDE8F08F00BF60891428B9
:103CE00007DA00BF64A0FCF7C3FA00BF6FF005005D
:103CF000F0E700BFE88801F09EF904900498C0F353
:103D00000C000790049800F40050039020891438A8
:103D10001FFA80FBA7E04FF6FF7000EACA00584583
:103D200001DD584603E04FF6FF7000EACA00089034
:103D30004FF4207214210E2001F0BCFE064606B995
:103D400097E000BF00BF142270680999FCF738FBA8
:103D5000756808980A9047E061890598081A80B24A
:103D6000029000BF00BF02990A98884201DA0A98BF
:103D700000E002988146B9F1000F03D100200590C0
:103D8000246831E000F0E6FB07461FB9304602F038
:103D90006FF96EE06168059808443B464122494648
:103DA000CDE90009002001F03DFF0B900B9830B9E0
:103DB000384600F0D4FB304602F05AF959E020466C
:103DC00002F00CFA7C613348386130460B9901F0FF
:103DD00057FF0A98A0EB090080B20A900A9810B128
:103DE00000200590246800BF0A980028B4D10598E7
:103DF000484480B20590B8F828001438584501DBD3
:103E0000012000E0002006900798C0F30C00049009
:103E1000069808B1039818B1049840F40050049033
:103E2000049801F008F9E8800899143188B201F08B
:103E300002F968800020688114212846FFF764FE9B
:103E40006881D8F81430314640460E9A984730467B
:103E500002F00EF90898ABEB00001FFA80FB079800
:103E6000504480B20790BBF1000F7FF454AF0020A4
:103E700030E74FF0FF302DE76970345F667261679D
:103E800028293A207062756620746F6F2073686FFE
:103E900072740000ED4800082DE9F04706460F4611
:103EA0004FF0010A746820780421B1EB201F07D07D
:103EB00000BF00BF304602F0DBF80020BDE8F0870D
:103EC000207800074FEA9068608801F0B4F88146D6
:103ED0003189494503DD4946304602F03FF9708992
:103EE000404505DB3089484502DBB8F1140F13DA91
:103EF000B8F1140F01DA00BF00BF7089404501DA44
:103F000000BF00BF3089484501DA00BF00BF30461E
:103F100002F0AEF80020D1E741462046FFF7F4FD5D
:103F200030B100BF00BF304602F0A2F80020C5E764
:103F300020695F494861E06808610846007D00F03B
:103F4000F000E0280AD197F8310000F0010018B124
:103F5000786808B13D461CE000251AE0384600F0BC
:103F6000ABF808B13D4614E000255148007D7F289C
:103F70000FD05048056809E0BD4200D105E0284651
:103F800000F09AF800B103E000BF2D68002DF3D1D6
:103F900000BF85B9607A11280DD104EB080000BF7D
:103FA00000BF4188B1F5884F04D100BF00BF3D4636
:103FB0004FF0000A00BFBAF1000F15D03C4800696D
:103FC00090B13B4908693946FFF73FFE28B93848A8
:103FD000007C00F0F000E02806D100BF00BF3046B2
:103FE00002F046F8002069E735B900BF00BF30464F
:103FF00002F03EF8002061E7E0884FF63F7108408C
:1040000048B100BF00BF304600F030F906460EB997
:10401000002053E7746800BF00BF00BF00BF244802
:1040200005604760846020780007800E2049888101
:104030004146304602F0DCF8607A01280DD00628AF
:1040400006D011280ED13946304605F041FF24E054
:104050003946304603F062F91FE039463046FFF733
:10406000F1FB1AE0124948692946FFF7EEFD70B9E5
:104070000F48007D00F0F000E02808D00FFA88F12A
:10408000304602F042F802213046FFF7D2FB00BF73
:1040900000BF304601F0ECFF00BF00BF0020044924
:1040A00008604860886088810861486100BF05E752
:1040B000403E00208800002010B5044600BF00BF2D
:1040C00094F8310000F0010080B1606870B10848D8
:1040D00040696168884205D0054948692146FFF773
:1040E000B4FD18B100BF00BF012010BD0020FCE7E7
:1040F000403E00202DE9FE4F07460C4615469846E7
:10410000DDE90C9A0E9EA34625B10CB1206808B9D2
:1041100006F1040B43462A4659463846CDE9009A33
:10412000029600F003F8BDE8FE8F00002DE9FF4F76
:1041300081B0064689469846DDE90FA7002500BFF5
:1041400000BF039800286AD04FF0140B14213046AA
:1041500001F072FC28B100BF00BFA81E05B0BDE889
:10416000F08F746800BF00BF84F8088084F809A04D
:104170004AEA08200006000C4AEA082140EA112019
:104180000544039800682061208A80B205442069B4
:1041900005EB104558464FEAEB710BEB9171C1F3FB
:1041A000870141F0400121700E98607021780E98CF
:1041B00040EA01200006010C22780E9840EA022015
:1041C00041EA10200544308900F035FF60806088A6
:1041D00005440020E0802348008800F02CFFA080E8
:1041E000A08805441F480088401C1E490880B9F17A
:1041F000000F03D11C480068E06002E0D9F800001D
:10420000E060A08980B20544E06805EB1045A8B2E3
:1042100000EB154505EB1545ED4365810CE0708914
:10422000142804DA00BF00BF6FF0010096E774683D
:1042300020690090CDF80CD000BF00BF388D48B188
:104240003089398D884205DD39463046039AFFF7BB
:1042500023FD83E700BF00BF7B6931463846039AE0
:1042600098477BE70A010020A4A900082DE9F14F37
:1042700084B004984568287800F00F001421B1EB51
:10428000800F02D000BF00BFFAE0E88800F0D3FE44
:10429000C0F30C004FF6FF7101EAC00A688800F015
:1042A000CAFE074628780007810E02910299B9429A
:1042B00000DDE5E00298381A87B2049801F02BFD82
:1042C00006467348018888190A280CDD31462846BD
:1042D00000F0AAFA20B16E48008830440A2802DDB6
:1042E00000BF00BFCCE06B48046813E06069E96878
:1042F000884209D1A0692969884205D1A089A98885
:10430000884201D1012000E0002010B100BF00BFB1
:1043100002E02468002CE9D100BF34B931462846B8
:1043200000F006FA044694B9AAE0E88800F083FE9B
:10433000C0F30C0058B9E08900F07DFEC0F30C001A
:1043400028B11422294604F10800FCF739F8E8885E
:10435000012121EA50100190019850B10AEB0701A8
:1043600088B2504503DB4FF6EB71884200DD7CE0FC
:1043700000BF2046019A049900F0FAF883460BF139
:10438000010000B971E0424800883044404908808B
:10439000019850B10AEB070188B2A083A17F41F0D8
:1043A0000101A17700BF00BF00BFBBF1010F58D1D1
:1043B000A08B143080B2009060684068D0F8009004
:1043C00060684568142204F108012846FBF7F8FFED
:1043D000009800F030FE68800020E8806881142199
:1043E0002846FFF791FB6881606804900DE0D9F8DA
:1043F000040003901421484601F0FAFE494604984F
:1044000001F03EFC0398D0F80090B9F1000FEED116
:1044100020480068844202D14FF000080EE01D4899
:10442000D0F8008006E0D8F80000A04200D104E0F7
:10443000D8F80080B8F1000FF5D100BF4146204602
:1044400000F060F9049801F066FC064600BF00BF6A
:104450000F480088801B0E490880049805B0BDE80D
:10446000F08F00BF00BF0020F8E700BF00BF60680A
:1044700028B900BF00BF0021204600F043F900BF6B
:1044800000BF00BF049801F0F3FD0020E6E7000044
:10449000100100200C01002010B5024622480168DE
:1044A00021E091F8310000F00100D8B191F831001D
:1044B000C0F38000B0B14868A0B110688B681840A4
:1044C000D1E901342340984201D1084610BD91F84A
:1044D000310000F0020028B91068CB68984201D181
:1044E0000846F3E709680029DBD110480068A0B14D
:1044F0000E48006890F8310000F0010068B10B48E8
:10450000006890F83100C0F3800030B107480068BF
:10451000406810B110787F2803D100BF00BF002091
:10452000D4E702480068D1E7880000208C00002012
:104530002DE9F84304460D4616461F46DDF8208057
:104540003B46324629462046CDF80080FFF711FB56
:10455000BDE8F88310B5052001F006F810BD10B5D0
:10456000044600BF00BF2146052000F0AFFF10BD8C
:104570002DE9F74F84B007468846002501200190B9
:10458000D8F8040002900299488800F054FD834650
:10459000029800780007800E03900398584503DDC9
:1045A000681E07B0BDE8F08F0398ABEB00001FFA60
:1045B00080FB0299C88800F03EFDC0F30C004FF666
:1045C000FF7101EAC00A00BF00BFD8F80440002014
:1045D0002060A4F804A00AEB0B00E080E0885045BE
:1045E00002DA4FF0FF30DCE7D7F804903EE0D9F86C
:1045F0000460A088B188884220DAC4F800909DB198
:10460000A088E988884203DBE088B188884202DD1F
:104610004FF0FF30C5E7C5F80080E888A1888842E0
:104620000BD00020019008E0E088B188884202DDCC
:104630004FF0FF30B5E7C7F804801AE0A088B188D2
:10464000884202D14FF0FF30ABE7A088F188884262
:1046500002DA4FF0FF30A4E72DB1E888B188884234
:1046600001D000200190D6F800903546B9F1000F36
:10467000BDD100BFB9F1000F0FD155B100BF00BFD0
:10468000C5F80080E888A188884206D00020019003
:1046900003E000BF00BFC7F80480069818B9B87FD0
:1046A00000F0010060B3019820B3786818B1786811
:1046B0004068808810B1002001901BE02546D4F8A6
:1046C00000900BE0D9F80440E888A188884202D025
:1046D0000020019005E02546D4F80090B9F1000FC4
:1046E000F0D100BF019828B100BF00BF00BF00BFDC
:1046F00000BF00BF019808B1012052E7002050E739
:1047000000204EE770B504460D4608480068A042F8
:1047100003D106492068086003E000BF00BF20689D
:1047200028602146042000F0D1FE70BD0C0100205D
:1047300070B505460E46042000F016FF044674B915
:104740003146284600F070F8B04203DB042000F048
:104750000BFF04461CB900BF00BF002070BD202124
:104760002046FBF794FE0F20E077064800682060A3
:10477000044804601422294604F10800FBF720FED7
:104780002046EBE70C0100202DE9F047044689465E
:10479000002600BF00BFB9F1000F01D000BF00BF6D
:1047A0006068D0F80480B8F80400C0B96568D8F82B
:1047B00000006060142204F108016868FBF700FE45
:1047C00001212846FFF797F9284601F0A4FA074689
:1047D00000BF00BFF01986B2284601F049FC6568A9
:1047E00010E0D5F80480AA46D8F80050504601F0F1
:1047F00092FA074600BF00BFF01986B2504601F09A
:1048000037FC00BF002DECD149462046FFF77AFF68
:1048100000BF00BF03480088801B02490880304663
:10482000BDE8F087100100202DE9F84F05468946C4
:10483000002700BF0026B2460020009083461B4898
:10484000046821E06069E968884207D1A0692969A4
:10485000884203D1A089A988884201D0012000E0C4
:10486000002068B10BF1010B1EB92646CDF800A05F
:1048700006E0E07FF17F884202DC2646CDF800A00A
:10488000206800B1A2462468002CDBD12EB130464E
:104890000099FFF779FF804647444F4502DABBF1A4
:1048A000010FC7DC3846BDE8F88F00000C0100207E
:1048B00070B500260C48046813E0E07F002807DD8F
:1048C000E07F401EE07700BF00BF2646246808E076
:1048D00000BF00BF2546246831462846FFF754FF35
:1048E00000BF002CE9D170BD0C01002070B5054659
:1048F0002C4600BF00BF00BF00BF606910B16069F7
:1049000001F0B6FB2046FFF72AFE70BD7FB5002000
:1049100001900024002505200090002086490870A1
:1049200000260221012001F065FE40F24321884269
:104930007ED182480078002849D04FF401420021FE
:10494000012005F039FF1420FCF72EF84FF4807297
:104950000021012005F030FF6420FCF725F800203D
:10496000029017E0002003900DE01420FCF71CF8E3
:104970000121084601F03EFE00F0200000B105E0F4
:104980000398401C039003980528EEDB00BF0298B3
:10499000401C029002981428E4DB0121084601F033
:1049A00029FE064606F0040010B90120624908708D
:1049B00000BF41220421012005F0FEFE0421012058
:1049C00001F018FE064614205D4908608DE04FF4A2
:1049D00012420021012005F0EFFE6420FBF7E4FF06
:1049E000002002901CE00020039012E00120FBF761
:1049F000DBFF0121084601F0FDFD064601210846C6
:104A000001F0F8FD00F0040000B105E00398401C3F
:104A1000039003986428E9DB00BF0298401C0290D1
:104A200002986428DFDB06F0040020B9012000E0D2
:104A300053E041490870002002901CE000200390E0
:104A400012E00120FBF7B0FF0121084601F0D2FD82
:104A500006460121084601F0CDFD00F0200000B11E
:104A600005E00398401C039003986428E9DB00BF2D
:104A70000298401C029002986428DFDB06F02000B8
:104A800048B94FF401420021012005F095FE1420A1
:104A9000FBF78AFF8DE700202949086000210120EB
:104AA00001F0A8FD00F4005028B125480068083046
:104AB0002349086004E022480068001D204908607E
:104AC0000021012001F096FD00F4807060B11C48C7
:104AD000006810301A49086006E01820184908607C
:104AE00044F4804444F4006400BF1548006818286A
:104AF00004D144F4804444F4006416E01048006893
:104B0000082802D144F480440FE00D4800681428BE
:104B100003D100BF44F4006407E00948006804289A
:104B200002D100BF00BF00E0FCE70648056825F49D
:104B3000B045254305607FBD2900002028000020E6
:104B4000240000200080024070B50446062084F84E
:104B50003000022084F82A000A212B2001550F2161
:104B60002C2001550E212D2001550D212E200155FF
:104B700006212F20015504F12A010020FDF73EFEF9
:104B800040F2DC5020850E2084F83100C004FDF78F
:104B900047FA4FF46020FDF743FA002505E0054988
:104BA00001EB0510FDF71EFF6D1C052DF7D3FDF77A
:104BB0009BFA70BD140100202DE9F04781460026C4
:104BC0000025022113480068FDF7F8F987B2052196
:104BD00010480068FDF7F2F980464FF4C17239467B
:104BE000002000F067FF054665B12C4608E06289A9
:104BF00008EB06016068FBF7E3FB60890644246864
:104C0000002CF4D100210846FDF774FA2846BDE8CF
:104C1000F0870000080000202DE9F04180460F4693
:104C2000002500BF0F480068006800F00040002821
:104C3000F8D101210B480068FDF7C0F906463C4653
:104C400007E0628970196168FBF7BAFB6089054467
:104C50002468002CF5D129460020FDF7C7FA002072
:104C6000BDE8F08104000020C0218171A822C2713A
:104C7000012202721B224272022101700A2141703C
:104C80000F2181700E21C1700D210171062141712A
:104C9000C0218172A822C27201220273642242736F
:104CA000FF218173FF22C273027400224274C0216B
:104CB0008174A822C27401220275427570470000F7
:104CC00070B586B00024002500268A48FFF7CCFF87
:104CD000FDF760FF00F0B5F98648807A0106854847
:104CE000C07A41EA00418348007B41EA00208149C3
:104CF000497B084302067F48807A01067D48C07AD6
:104D000041EA00417B48007B41EA00207949497B28
:104D1000084300F47F4042EA00227648807A010688
:104D20007448C07A41EA00417248007B41EA0020A1
:104D30007049497B084300F47F0042EA10226D4825
:104D4000807A01066B48C07A41EA00416948007BDD
:104D500041EA00206749497B084342EA1060059018
:104D60006448807B01066348C07B41EA004161489A
:104D7000007C41EA00205F49497C084302065D4807
:104D8000807B01065B48C07B41EA00415948007CBA
:104D900041EA00205749497C084300F47F4042EA39
:104DA00000225448807B01065248C07B41EA004102
:104DB0005048007C41EA00214E48407C014301F408
:104DC0007F0042EA10224B48807B01064948C07BA5
:104DD00041EA00414748007C41EA00214548407CC7
:104DE000014342EA116004904248807C0106414838
:104DF000C07C41EA00413F48007D41EA00203D4936
:104E0000497D084302063B48807C01063948C07C46
:104E100041EA00413748007D41EA00213548407DA4
:104E2000014301F47F4042EA00223248807C0106BF
:104E30003048C07C41EA00412E48007D41EA002014
:104E40002C49497D084300F47F0042EA102229489A
:104E5000807C01062748C07C41EA00412548007D4E
:104E600041EA00212348407D014342EA116003905A
:104E70002048417900791F4AD278CDE9002002917B
:104E80001C488378427801781BA0FBF7F1F9194898
:104E9000407B00901748037BC27A817A24A0FBF7FD
:104EA000E7F91448407C00901248037CC27B817B68
:104EB0002BA0FBF7DDF90F48407D00900D48037DE6
:104EC000C27C817C32A0FBF7D3F93D483D490022EA
:104ED00003ABCDE90021029004AA05A93A4800F0ED
:104EE0006BFB394800F0ECFC374800F0F1FC002087
:104EF00006B070BDF03D0020CDF8BFA8656EB5C40A
:104F00004D4143B5D8D6B7CEAA3A2E2E2E2E2E2EF0
:104F10002E2E2E2E2E2E2E2E2E2E25642E25642E57
:104F200025642E25642E25642E25640D0A000000BC
:104F3000BEB2CCAC4950B5D8D6B72E2E2E2E2E2EC2
:104F40002E2E2E2E2E2E2E2E2E2E2E2E2E2E2E2E81
:104F50002E2E25642E25642E25642E25640D0A0030
:104F6000D7D3CDF8D1DAC2EB2E2E2E2E2E2E2E2E0A
:104F70002E2E2E2E2E2E2E2E2E2E2E2E2E2E2E2E51
:104F80002E2E25642E25642E25642E25640D0A0000
:104F9000C4ACC8CFCDF8B9D82E2E2E2E2E2E2E2E44
:104FA0002E2E2E2E2E2E2E2E2E2E2E2E2E2E2E2E21
:104FB0002E2E25642E25642E25642E25640D0A00D0
:104FC00079350008B1360008083E00202DE9F0418F
:104FD000044625466868804701F066FC06460D4990
:104FE000286809684718B81BB0F1004F01D30120A9
:104FF00000E0002030B1296888192246064901F0F6
:1050000069FC04E022460449384601F063FCBDE82F
:10501000F0810000E0000020CD4F000801460806A6
:1050200001F47F4240EA022001F47F0240EA1220AC
:1050300040EA1160704701460806000C40EA112062
:10504000704710B5002400BF00BF00BF00BF00F0D4
:10505000C3F800F063FA00F0DDFB04F037FF02F064
:105060005BF901F07FFC10BD01B50C49009809689F
:10507000401AFA2804D309490098086004F070FD2A
:10508000074900980968401AB0F57A7F04D30449AB
:1050900000980860FEF798F908BD00002C00002079
:1050A0003000002010B50248FEF71AFB10BD0000CA
:1050B000083E0020F8B505460A462B460020009021
:1050C000002103F0010636B1002A04DD13F8010BBC
:1050D0008DF80100521E1C4603E034F8027B39446F
:1050E000921E012AF9DC002A02DD20788DF80000EA
:1050F000BDF80000014488B200EB114188B200EB1A
:10510000114126B1C8B2C1F3072747EA002188B28E
:10511000F8BD0000FBF780FBFBF78BFBFFF7D0FD32
:1051200004A0FBF7A5F804E0FEF706FB0446FFF732
:105130009BFFF9E7696E6974207375736363657328
:10514000730D0A0070B5054615B900BF00BF70BDEC
:1051500005F0030030B100BF00BF00BF00BF00BFBB
:1051600000BFF4E7A5F1080418480068844205D39D
:1051700005F10C0016490968884206D900BF00BF36
:1051800000BF00BF00BF00BFE1E7207930B900BF1A
:1051900000BF00BF00BF00BF00BFD8E7204600F03F
:1051A00049F830B900BF00BF00BF00BF00BF00BF5B
:1051B000CDE70020207107480068844201D20548ED
:1051C0000460204601F050F800BFC0E758000020FE
:1051D0005C0000206000002010B500BF00BF114837
:1051E00020F0030010490860084604684FF4A0400E
:1051F00020800020608020714FF4A04001F082F8F0
:105200000A4908600120096808714FF4A040074965
:10521000096808800549096848800348006804490E
:10522000086010BD5B3E0020580000205C0000209C
:10523000600000202DE9F0410446204600F0ACF863
:105240000546208801F05EF80646608801F05AF8AD
:1052500007462088B0F5A04F10D86088B0F5A04F61
:105260000CD86088A84202D03888A84206D10648E7
:105270000068864205D07088A84202D00020BDE8B0
:10528000F0810120FBE700005C0000202DE9F047E1
:105290008046B8F1000F02D10020BDE8F08708F188
:1052A000030020F0030085B20C2D00D20C25B5F5CB
:1052B000A04F01D8454501DA0020EEE734480068E8
:1052C00000F06AF806465BE0304601F01BF8044641
:1052D0002079002850D1218806F10800081AA84238
:1052E0004AD3218806F10800091A05F11400814209
:1052F0001DD306F1080028441FFA80F900BF00BF43
:10530000484600F0FFFF07460021397121883980A7
:105310007E80A4F80090012020713888B0F5A04F5D
:1053200007D0388800F0EEFFA0F8029001E00120DD
:10533000207117480068844215D11548D0F800A0A4
:1053400004E0BAF8000000F0DDFF82469AF804009D
:1053500018B1104800688245F3D10D48C0F800A08C
:1053600000BF00BF00BF00BF00BF00BF00BF00BF45
:1053700000BF04F1080090E7304600F0C3FF068844
:10538000C5F5A040B0429FD800BF00BF002084E711
:10539000600000205C000020014602480088081AD6
:1053A00080B27047580000202DE9F84F81468B46A7
:1053B0000BF1030020F0030085B20C2D00D20C2568
:1053C000B5F5A04F01D85D4502DA0020BDE8F88FA1
:1053D00000BF00BF3A480068814503D339480068E0
:1053E000814505D300BF00BF00BF00BF4846EDE7C1
:1053F000A9F108084046FFF7CFFF0646B8F80010AD
:10540000881B08381FFA80FA00BF00BF554501DD30
:105410000020DBE7554501D14846D7E7B8F8000042
:1054200000F070FF0446207920BB00BF00BF208839
:10543000009006F10800284487B223480068A04283
:1054400004D1384600F05EFF1F490860384600F07E
:1054500059FF044600202071009820806680A8F83B
:1054600000702088B0F5A04F03D0208800F04AFFDC
:10547000478023E005F1140050451FD806F10800CD
:10548000284487B200BF00BF384600F03BFF044607
:105490000D480068844201D20B480460002020714E
:1054A000B8F8000020806680A8F800702088B0F569
:1054B000A04F03D0208800F025FF4780484685E7AD
:1054C000580000205C0000206000002070B50446F9
:1054D0000D4600BF092C05DB00BF08A0FAF7C8FE87
:1054E00000BF70BD00BF05B9FBE70B4951F82400B0
:1054F0002946FCF7FEFC00BFF3E700006D656D7008
:105500005F667265653A2074797065203C204D4570
:105510004D505F4D4158000004A9000810B500240B
:1055200006E0054951F8240000F008F8601C84B238
:10553000092CF6D310BD000004A9000810B5002303
:10554000C46823608368DB1C23F00301002207E0AA
:10555000C3681B680B60C368196083881944521CB8
:10556000C3889342F4DC10BD70B5044600BF092C1B
:1055700006DB00BF07A0FAF77BFE00BF002070BD6E
:1055800000BF0C4951F82400FCF7BDFC0546284635
:10559000F5E700006D656D705F6D616C6C6F633A6F
:1055A0002074797065203C204D454D505F4D415829
:1055B0000000000004A900082DE9F04704460D464C
:1055C00016461F46DDE9098ADDF8209000BF3CB988
:1055D00000BF40A0FAF74CFE00BF0020BDE8F087F6
:1055E00000BF00BFB8F1000F06D100BF40A0FAF71E
:1055F0003FFE00BF0020F1E700BF05B9454D06B9E9
:10560000444E07B9434F00206060A060E06042480C
:1056100060610020208584F831006062E061C4F898
:1056200020903E48007884F83400C4F810A03B462F
:1056300032462946204600F013F92046C04708B1FB
:105640000020CBE700BF94F83420FF2A02D10022CB
:1056500084F834200021324A106811E000BF00BFF6
:10566000491C00BF00BF90F8342094F834309A42AF
:1056700005D194F83420521C84F8342002E00068EC
:105680000028EBD100BF0028DDD194F83400FE28BB
:1056900003D100202149087004E094F83400401C34
:1056A0001E4908701E48006820601D48046000BF45
:1056B00000BF00BF00BF00BF00BF00BF00BF00BFF2
:1056C00000BF00BF00BF00BF00BF00BF00BF20463B
:1056D00084E700006E657469665F6164643A2069FE
:1056E0006E76616C6964206E657469660000000006
:1056F0006E657469665F6164643A204E6F20696EFE
:1057000069742066756E6374696F6E20676976656B
:105710006E000000A4A9000857580008900000205F
:105720008800002070B504460D462946204602F048
:1057300063FA2946204604F0E5FC70BD10B5034627
:105740000868DC68A04201D1012000E0002040B9D7
:1057500009B9002000E00868D86000BF00BF012040
:1057600010BD0020FCE7F8B504460D46164600BF04
:1057700000BF00BF00BF28686168884201D10120D6
:1057800000E00020D8B9286800906068306000BF51
:1057900000BF69463046FFF7C5FF0DB9002000E0A5
:1057A000286860600121204600F035F800BFE069FC
:1057B00010B12046E169884700BF0120F8BD0020F4
:1057C000FCE710B5034608689C68A04201D101209F
:1057D00000E0002040B909B9002000E008689860A6
:1057E00000BF00BF012010BD0020FCE702466AB1E7
:1057F0000748016808E091F83400401CC0B29042AC
:1058000001D10846704709680029F4D10020F9E762
:1058100088000020704770B504460D4600BF00BFE9
:1058200094F8310000F0040020B194F8310000F049
:10583000010000B970BD05F0010050B1606840B1D1
:1058400094F8310000F0080018B1211D2046FDF742
:1058500097FD00BFEEE703466FF00B0070470000B6
:105860002DE9F84F80460C4615461E464FF00009BC
:10587000CA4604B9114C05B9104D06B90F4E0CB10A
:10588000206808B9012000E00020074627B16A46D9
:1058900021464046FFF767FF4A4629464046FFF744
:1058A00090FF524631464046FFF748FF27B96A4607
:1058B00021464046FFF757FFBDE8F88FA4A900082E
:1058C0000249086000BF00BF704700008C00002044
:1058D00010B5044600BF2CB900BF10A0FAF7C8FCF1
:1058E00000BF10BD00BF94F8310000F0010090B976
:1058F00000BF94F8310040F0010084F8310000BF8F
:1059000000BFE06910B12046E169884700BF03216C
:105910002046FFF780FF00BFE3E700006E65746973
:10592000665F7365745F75703A20696E76616C6945
:1059300064206E657469660010B5002211463D2032
:1059400000F002F810BD00002DE9F04103460D46BD
:10595000164600240027A0462A48006800F4E060AC
:10596000B0F5E06F03D100BF4FF0040830E02548E8
:10597000006800F4E060B0F5C06F03D101274FF07C
:10598000030825E01F48006800F4E060B0F5A06F50
:1059900002D10227B8461BE01A48006800F4E06014
:1059A000B0F5806F03D103274FF0010810E01548D0
:1059B000006800F4E060B0F5407F03D104274FF0A9
:1059C000000805E04FF4A06000F020F80227B84678
:1059D000C7F1040005FA00F4C8F104010F20C84023
:1059E0003040044324010848C45403F01F0101203F
:1059F00088405911890001F1E021C1F80001BDE89A
:105A0000F08100000CED00E000E400E002490143F9
:105A1000024A1160704700000000FA050CED00E03A
:105A2000034A0A400243034B1A60BFF34F8F70478B
:105A300080FFFF1F08ED00E070B504460D46002210
:105A40002946204600F001F870BD70B503461546A2
:105A500000BF00BF13B1B1F5803F01D3012070BD7D
:105A600009B90020FBE78AB21889104480B290423D
:105A700001DA0120F3E71E7B06F0800048B1586888
:105A8000441A03F11000844209D200BF00BF012074
:105A9000E5E715B15868441A01E00120DFE700BFCF
:105AA00000BF5C60588910445881188910441881DF
:105AB0000020D4E72DE9FE4F82460D46904657461A
:105AC00000BF00BFB8F1010F0AD0B8F1410F06D0F6
:105AD000B8F5C17F0BD0B8F5207F7ED14CE000BF78
