:020000040800F2
:10000000B8F6002031020008F1060008E9060008F1
:10001000ED060008B9060008E90700080000000026
:100020000000000000000000000000004302000883
:10003000450200080000000047020008FD06000815
:100040004B0200084B0200084B0200084B0200085C
:100050004B0200084B0200084B0200084B0200084C
:100060004B0200084B0200084B0200084B0200083C
:100070004B0200084B0200084B0200084B0200082C
:100080004B0200084B0200084B0200084B0200081C
:100090004B0200084B0200084B0200084B0200080C
:1000A0004B0200084B0200084B0200084B020008FC
:1000B0004B0200084B0200084B0200084B020008EC
:1000C0004B0200084B0200084B0200084B020008DC
:1000D0004B0200084B0200084B0200084B020008CC
:1000E0004B0200084B0200084B0200084B020008BC
:1000F0004B0200084B0200084B0200084B020008AC
:100100004B020008F30600084B0200084B020008EF
:100110004B0200084B0200084B0200084B0200088B
:100120004B0200084B0200084B0200084B0200087B
:100130004B020008BD0600084B0200084B020008F5
:100140004B0200084B0200084B0200084B0200085B
:100150004B0200084B0200084B0200084B0200084B
:100160004B0200084B0200084B0200084B0200083B
:100170004B0200084B0200084B0200080000000080
:100180004B0200084B02000800F002F800F041F8B2
:100190000AA090E8000C82448344AAF10107DA45E2
:1001A00001D100F036F8AFF2090EBAE80F0013F0F3
:1001B000010F18BFFB1A43F001031847608E0000BF
:1001C000808E0000103A24BF78C878C1FAD8520750
:1001D00024BF30C830C144BF04680C6070470000C1
:1001E0000023002400250026103A28BF78C1FBD840
:1001F000520728BF30C148BF0B607047642900F028
:100200007780002070471FB508F0BCFD1FBD10B5FA
:1002100010BD00F023FA1146FFF7F5FF03F034FCA0
:1002200000F041FA03B4FFF7F2FF03BC00F0F2FA6A
:100230000948804709480047FEE7FEE7FEE7FEE77A
:10024000FEE7FEE7FEE7FEE7FEE7FEE704480549B6
:10025000054A064B70470000150700088901000891
:10026000B8D60020B8F60020B8E60020B8E6002096
:100270000FB4044910B503AA029800F08BF910BC22
:100280005DF814FB1C0000202DE9F0410E460446E9
:10029000002020622046E168884730B3252805D039
:1002A000D4E901219047206A401CF2E7E16820462A
:1002B00000278847050018D0A5F14100192802D869
:1002C00020354FF400673246294620462760FFF765
:1002D00095FF40B1012804D0F61D26F00706083628
:1002E000D8E7361DD6E72846DAE7206ABDE8F08170
:1002F0002DE9F0410646002410687529314616A5FF
:1003000010D0AFF30080002802DA404213A507E0C6
:1003100031688A0701D512A502E0490704D511A565
:10032000012401E0AFF3008000210A2206F1240736
:1003300009E0B0FBF2FCB0FBF2F302FB1C00303032
:1003400078541846491C0028F3D123462A463046E3
:10035000BDE8F04100F0C5B8000000002D0000002D
:100360002B0000002000000040EA010310B59B07AD
:100370000FD1042A0DD310C808C9121F9C42F8D00F
:1003800020BA19BA884201D9012010BD4FF0FF30C0
:1003900010BD1AB1D30703D0521C07E0002010BDD6
:1003A00010F8013B11F8014B1B1B07D110F8013B62
:1003B00011F8014B1B1B01D1921EF1D1184610BD43
:1003C000032A40F2308010F0030C00F0158011F881
:1003D000013BBCF1020F624498BF11F801CB00F859
:1003E000013B38BF11F8013BA2F1040298BF00F8AD
:1003F00001CB38BF00F8013B11F0030300F0DC80B3
:10040000083AC0F0088051F8043B083A51F804CB90
:10041000A0E80810F5E7121D5CBF51F8043B40F856
:10042000043BAFF30080D20724BF11F8013B11F861
:1004300001CB48BF11F8012B24BF00F8013B00F8A5
:1004400001CB48BF00F8012B70474FF00002042990
:10045000C0F0128010F0030C00F01B80CCF1040CF3
:10046000BCF1020F18BF00F8012BA8BF20F8022B27
:10047000A1EB0C0100F00DB85FEAC17C24BF00F8CD
:10048000012B00F8012B48BF00F8012B70474FF0FB
:10049000000200B5134694469646203922BFA0E8D4
:1004A0000C50A0E80C50B1F12001BFF4F7AF0907E0
:1004B00028BFA0E80C5048BF0CC05DF804EB8900D1
:1004C00028BF40F8042B08BF704748BF20F8022B14
:1004D00011F0804F18BF00F8012B7047704770472C
:1004E00070472DE9F0470D4699469246044600F1C3
:1004F00024080168880604D5E06921F01001216014
:1005000000E00120A84201DD471B00E00027A169AF
:100510007A1902EB0900081AA0612078C00602D4FB
:100520002046AFF30080002608E0D4E901211AF844
:1005300006009047206A401C761C20624E45F4DB82
:100540002078C0060AD52046AFF3008006E0D4E943
:10055000012130209047206A401C2062381EA7F1FC
:100560000107F4DC07E0D4E9012118F80500904701
:10057000206A401C2062281EA5F10105F3DC2046FC
:10058000AFF300802078000602D50220BDE8F08796
:100590000120FBE7074B70B50D467B4400F047F8A0
:1005A0000446284600F056F810B14FF0FF3070BDF9
:1005B000204670BD831F000010B5203AC0F00B80AC
:1005C000B1E81850203AA0E81850B1E81850A0E857
:1005D0001850BFF4F5AF5FEA027C24BFB1E81850B1
:1005E000A0E8185044BF18C918C0BDE810405FEA21
:1005F000827C24BF51F8043B40F8043B08BF70479D
:10060000D20728BF31F8023B48BF11F8012B28BFA1
:1006100020F8023B48BF00F8012B704700487047A4
:1006200058D6002001694A1C02610878704700B55D
:100630008FB0CDE901310021059105497944CDE91B
:10064000031011466846FFF71FFE0FB000BD000003
:10065000E5FFFFFF007B00F0800070477546FFF765
:10066000DDFFAE4605006946534620F0070085468B
:1006700018B020B5FFF7EAFDBDE820404FF00006B6
:100680004FF000074FF000084FF0000B21F007017A
:10069000AC46ACE8C009ACE8C009ACE8C009ACE8BD
:1006A000C0098D46704710B50446AFF30080204660
:1006B000BDE81040FFF7B6BD00BFFEE710B5094822
:1006C00000F090FF07480A3000F08CFF00BF01F0F7
:1006D000F7F80446012C01D903F018F8002CF6D1E4
:1006E00010BD00000605040000BFFEE700BFFEE7E6
:1006F000704710B504F038FC10BD000010B5044878
:100700000068401C0249086004F04EFD10BD000066
:100710000000002008B53048006840F470002E4901
:1007200008602E48006840F001002C49086000BFB6
:100730002A48006800F002000028F9D000BF2748CE
:100740000830006840F0800024490831086000202B
:10075000009002E00098401C009000985028F9D3C7
:100760001E480830006840F090001C4908310860BD
:100770000020009002E00098401C00900098502853
:10078000F9D300BF15480830006820F00300134972
:100790000831086011480068114908400F49086095
:1007A0000846006820F48020086000200B490831CA
:1007B000086000BF09480830006800200028F9D10F
:1007C00008480649091D0860002004490C310860EA
:1007D00004F006FE08BD000088ED00E0003802408D
:1007E000FFFFF6FE1030002400BFFEE710B5002822
:1007F00004DB0A07130E054A135406E00A07140E19
:10080000034A00F00F031B1FD45410BD00E400E0A6
:1008100018ED00E000BF704710B54FF4A06003F082
:10082000AFFD00214FF0006003F0B4FD04F0DCFDEB
:1008300010BD10B5002404E0204600F005F8601C4F
:10084000C4B2042CF8DB10BD10B504464A4931F897
:10085000140004F053FB494931F8140004F04EFB36
:10086000474931F8140004F049FB464B53F8242063
:10087000454B53F82410454B53F8240001F06AFE11
:10088000434B53F82420434B53F82410424B53F866
:10089000240001F05FFE3B4951F824303B4951F8F8
:1008A00024000122022101F084FE364951F824304F
:1008B000364951F824000222002101F0A1FE3449FA
:1008C00051F82430344951F824000122022101F06A
:1008D00070FE2F4951F824302F4951F8240002228C
:1008E000002101F08DFE2D4951F8240008F0B8F9DF
:1008F0002B4A52F82410294A52F8240008F038F9FB
:10090000264951F82400042108F02CFA234951F813
:100910002400082108F02EFA204951F8240008F09C
:100920000DFA34B91F49085D0022022103F0C6FC0C
:1009300020E0012C06D11B49085D0022022103F0B2
:10094000BDFC17E0022C06D11649085D00221146B5
:1009500003F0B4FC0EE0032C06D11249085D00221E
:10096000012103F0ABFC05E00E49085D00220221E5
:1009700003F0A4FC10BD0000AC8D0008E48D00085D
:10098000A48D0008D48D0008B48D0008C48D000823
:100990000C8E0008EC8D0008FC8D0008908D00087E
:1009A0001C8E0008A08D000870B505460E4600BFDD
:1009B0002DB900BF0CA0FFF75BFC00BF70BD00BFEE
:1009C0006C6A00BF00BF6CB1607908280AD100BF13
:1009D00000BF3068E169884204D100BF00BF2846EB
:1009E00000F0B8F800BFE9E76E6574696620213D44
:1009F000204E554C4C0000002DE9F05F07460D4697
:100A000016469A4600BF3FB900BF40A0FFF730FC32
:100A100000BF0020BDE8F09F00BF00BF35B900BF98
:100A200042A0FFF725FC00BF0020F3E700BF4FF412
:100A300020724FF49A71362003F0F6FC8146B9F12A
:100A4000000F03D100BF00BF0020E3E700BF00BFDD
:100A5000032E02D16879032809D1A87920B93B482F
:100A60000068401C3949086038480068286000BFA9
:100A700000BFD9F804404FF49A712046FFF7E5FC17
:100A800001202070607097F83000A070286802F094
:100A90000CFE6060082E0BD0042E09D0072E07D064
:100AA000032E07D16879052802D06879042801D17E
:100AB0007868E0604FF000080BE007F12A0010F8BA
:100AC000081004F11C0000F8081008F101001FFADA
:100AD00080F8B8F1060FF0D31D48C4F8EC000123EC
:100AE000352204F1F001002000F094F883463246EC
:100AF00004F1F001584600F099F88346BAF1000F6E
:100B000001D0AAF800B0484684E70000646863702A
:100B10005F6372656174655F6D73673A206E6574BB
:100B2000696620213D204E554C4C0000646863707E
:100B30005F6372656174655F6D73673A20646863B3
:100B40007020213D204E554C4C0000000801002033
:100B5000638253632DE9FE4F0646746A00BF00BFEF
:100B60000C21204600F0A0F802AB042221463046BA
:100B7000FFF742FF054675B3D5F8048004233222FF
:100B800008F1F001BDF8080000F044F80290E069B7
:100B900002F08BFD8246524608F1F001BDF80800D4
:100BA00000F04CF802902A4608F1F001BDF8080068
:100BB00000F05DF814484323144A2946CDE900604B
:100BC0001348006807F0D0FE0746284603F00AFFE6
:100BD00000BF00BF04E0FFE700BF00BF4FF0FF37DA
:100BE000A079FF2802DAA079401CA07142F21079A6
:100BF00009F2F3104FF4FA7190FBF1F0208100BF7D
:100C000000BF3846BDE8FE8F308F0008348F0008E3
:100C10000001002030B500BF00BF0446451CA8B24B
:100C20000A550446451CA8B20B5530BD10B500BF8F
:100C300000BF0346441CA0B2CA5410BD30B500BF6B
:100C400000BF150E0346441CA0B2CD54C2F30745A5
:100C50000346441CA0B2CD54C2F307250346441CEE
:100C6000A0B2CD540346441CA0B2CA5430BD70B5E6
:100C700004460D461646FF222046611C8CB22A54BB
:100C800004E000222046611C8CB22A54442C02D37A
:100C900004F0030008B1442CF3D304F1F00081B256
:100CA000304603F015FF70BD42798A4203D041718E
:100CB00000228271028170470A4600BF00BF1146C0
:100CC000C3681B680B60C368196070470246D06830
:100CD000016831B10868D368186000BF00BF0846DA
:100CE000704700BF00BF0020FAE700000020134952
:100CF00008681349084000BF1049086000210F4AE6
:100D000051609160D160114688694FF64171084089
:100D100040F08000114688610021D161094988694D
:100D20000949084040F00870064988610868074989
:100D300008400748034908607047000000800240EF
:100D40000F8130FD00900240233FDEF87D0000F867
:100D50000060C10210B540F2194004F0F3F840F20F
:100D6000194004F0DDF800F005FC10BD08B50021C5
:100D70000091009002E00099491E0091009900291D
:100D8000F9D108BD02464FF0FF30062927D2DFE82F
:100D900001F022200B03071E9388C3F30C001FE011
:100DA0005368C3F30C401BE01368C3F30D400428E1
:100DB0000BD9001F0B4B1B6803F0007333B1137882
:100DC00003F0200313B1001D00E0002008E090684C
:100DD00006E0906804E01378C3F3C30000E000BFAE
:100DE00000BF7047008002402DE9F0430446002117
:100DF0000025002600278C46B4F5E00F0FD12348CC
:100E0000234B052540F2F4564FF48017DFF8848019
:100E1000C8F81000DFF88080C8F800000FE01F4815
:100E20001F4B052540F2F456EF0744F2F45CDFF85F
:100E30006480C8F80C00DFF86C80C8F800004FF040
:100E40000008DFF86490C9F80080DFF86090C9F806
:100E50000080002115E000EB01121760C2F804C009
:100E600001FB0638C2F80880A5F10108884506D9BB
:100E700000EB011808F11008C2F80C8000E0D06007
:100E8000491CA942E7D3BDE8F083000068010020B7
:100E90007C1F002000900240040000201801002068
:100EA000B801002008000020100000200C000020E5
:100EB00000B500F08FFD00F09BFC00BD30B503468F
:100EC0000C460021002238480068006800F000400D
:100ED00008B1002030BD002B34D0334800680088B2
:100EE00000F4004060BB30480068008800F4807067
:100EF00030B32D480068008800F4007000B32A4821
:100F000000680068C0F30D42121F2848006800F016
:100F1000007030B124480068007800F0200000B173
:100F2000121DA24201D90020D4E7002105E01E488D
:100F300000688068405C5854491C9142F7D301E036
:100F40000020C7E74FF00040174D2D682860184873
:100F5000406900F0800020B18020154D68610020BC
:100F6000A86011480068808800F4804028B10E48CD
:100F70000068C0680C4D286014E00B480068808849
:100F800000F4004020B10A48C068074D286009E01D
:100F900007480068C0F384050348006810302844FF
:100FA000014D2860012095E70800002000800240E4
:100FB0000090024070B5034600222F480068006888
:100FC00000F0004008B1002070BD40F2F4508142B2
:100FD00001D90020F8E74BB1002205E0985C264ECD
:100FE0003668B668B054521C8A42F7D3224800686B
:100FF000416021480068006840F040501E4E36684D
:1010000030601D480068006840F000401A4E3668A5
:1010100030601A48406900F004051848406900F043
:10102000200405B92CB145EA0400144E706100207B
:10103000706011480068006800F4801028B10E4804
:101040000068C0680C4E306014E00B48006800680F
:1010500000F4001020B109480069074E306009E033
:1010600006480068C0F38406034800681030304426
:10107000014E30600120A7E70400002000900240EC
:1010800010B54FF4406003F039FF40F6014003F023
:1010900035FF40F6024003F031FF40F6034003F015
:1010A0002DFF41F20E1003F029FF4FF0C06108112F
:1010B00003F084FE4FF4000004F002F90223002242
:1010C0001946504801F075FA0223032200214D48C9
:1010D00001F096FA0423002202214A4801F069FA3D
:1010E000042303220021474801F08AFA80230022CA
:1010F0000221444801F05DFA802303220021414887
:1011000001F07EFA02220B213E4801F023FA04226C
:101110000B213C4801F01EFA80220B21394801F0D6
:1011200019FA4FF4006300220221374801F041FA16
:101130004FF4006303220021334801F061FA4FF4B9
:10114000005300220221304801F033FA4FF40053DB
:10115000032200212C4801F053FA4FF4805300225F
:101160000221294801F025FA4FF48053032200217F
:10117000254801F045FA4FF400620B21224801F0A6
:10118000E9F94FF400520B211F4801F0E3F94FF445
:1011900080520B211C4801F0DDF902230022194680
:1011A0001A4801F006FA022303220021174801F031
:1011B00027FA102300220221144801F0FAF9102323
:1011C00003220021114801F01BFA202300220221F2
:1011D0000E4801F0EEF92023032200210B4801F014
:1011E0000FFA02220B21094801F0B4F910220B2159
:1011F000064801F0AFF920220B21044801F0AAF9BA
:1012000010BD00000000024000040240000802403F
:101210002DE9F74F82B081468A460024002500263A
:101220000027A046002001908346009000F020FA9D
:1012300048B9C548FFF79AFD00F01AFA18B90098A6
:1012400005B0BDE8F08FFFF751FD4F46012F5CD18F
:1012500000BF01AB01221146002000F075FABDF875
:10126000040000F00400019008F10108BDF804003A
:1012700010B9B6488045ECD3B448804501D10098F8
:10128000DEE74FF000084FF48050019001AB0022E0
:101290000121022000F058FA8346BBF1000F01D172
:1012A0000098CDE700BF01AB01221146002000F0FD
:1012B0004BFABDF8040000F02000019008F101088D
:1012C000BDF8040010B9A1488045ECD39F48804583
:1012D00001D10098B4E74FF0000801AB00220121D2
:1012E000104600F031FABDF8040000F4807010B12F
:1012F0004FF4006700E00027BDF8040000F48070A0
:1013000000B11DE047F480471AE007F40060C00810
:10131000019007F48040BDF8041041EA50000190AC
:1013200001AB00220121022000F00EFA8346BBF13E
:10133000000F01D1009883E76FF07F40FFF716FDA3
:101340008348046824F4B0443C4304600AF4806099
:1013500070B17F48006840F480607D4908607D4836
:10136000846924F080640AF08060044379488461D1
:101370007748406804990843754948607648007882
:1013800000F00100A8B174484568084604682E467C
:1013900072480440C04306403443084604606D4828
:1013A00084692E4624F0C00406F4407644EA96048C
:1013B00084616948007800F0020040B166488668A0
:1013C00064480468664804403443624804606248E4
:1013D000007800F0040040B15F48C6685D480468CA
:1013E0006048044034435B4804605B48007800F088
:1013F000080048B158480669564804684CF2020093
:1014000084433443534804605348007800F010008C
:1014100040B1514846694F488469534804403443B9
:101420004C4884614C48007800F0200098B14A484C
:101430008569484884692E464C480440C0430640AC
:1014400034434448846104682E4624F0800406F046
:101450008006344304604048007800F0400038B112
:101460003D48C5693A48C4696FF310042C43C46110
:101470003948007800F08000C0B13748056A344828
:1014800084692E464FF64170044086433443304809
:1014900084613048803004682E4624F0770406F4D6
:1014A000EE4644EA16242B48C0F880402A480088BB
:1014B00000F4807018B12848406A254988602648A1
:1014C000008800F4007018B12348806A2049C86081
:1014D0002148008800F4806048B11F48C56A1C4854
:1014E000446840F2DE7084432C43194844601A4833
:1014F000008800F4006040B11748056B1448046888
:101500001B4804402C43124804601348008800F430
:10151000805038B11048456B0D48046824F44004ED
:101520002C4304600C48008800F4005038B10A488D
:10153000856B0748046824F460242C430460012070
:10154000009000987CE60000FFFF8F00FFFF040082
:101550000080024000900240403D00207FFFFFFDE0
:10156000FFFFFEF8FFC001FFE73FDEFDFBFFFFFED0
:101570008FDDFEFF00200849086048608860C86071
:10158000086148618861C861086248628862C8620F
:101590000863486388637047403D002041F21C01A6
:1015A000B1EB901F0DD10E4A02EB9011096800F0CB
:1015B0001F0301229A401143094B03EB9012116063
:1015C0000CE0074A02EB9011096800F01F030122AA
:1015D0009A409143024B03EB901211607047000058
:1015E0000080024000F01F0201219140024B03EBFA
:1015F0009012116070470000008002400A794B7918
:1016000042EA0322084B03441A64CA7812068B7814
:1016100042EA03424B7842EA03220B781A43024B18
:1016200003445A64704700000080024010B5002453
:1016300040F6194003F062FC40F61A4003F05EFCED
:1016400040F61B4003F05AFCFFF784FB00F084F9DE
:1016500004460CB900BFFEE700224FF48061012070
:10166000FFF7D6FD0149086010BD00002C000020E6
:10167000F8B500262C48056925F01C05012003F06B
:10168000ABFB04462948844205D32948844202D250
:1016900045F0080526E02648844205D325488442C3
:1016A00002D245F00C051DE02248844203D32248B3
:1016B000844200D216E02048844205D31F48844269
:1016C00002D245F004050DE01C48844202D31C48B8
:1016D000844202D31A48844202D145F0100501E049
:1016E0003046F8BD104805614FF4004000906B464D
:1016F00000220121022000F027F808B93046F0E767
:101700001048FFF733FB6B4600220121104600F022
:101710001BF808B93046E4E7BDF8000000F40040CB
:1017200000B901263046DCE700800240002D31017F
:10173000C00E16020087930300E1F50580D1F00882
:10174000001C4E0EFFFF04002DE9F04104460D463B
:1017500000270020DFF884C0DCF810104FF6C37CAF
:1017600021EA0C014FF4F86C0CEA821C4CEA040CE0
:101770004FF4784808EAC5284CEA080C4CF0010CF4
:101780004CEA0101022C05D1B3F800C0DFF84C800F
:10179000C8F814C0DFF844C0CCF8101000BFDFF860
:1017A0003CC0DCF810C00CF001067F1C1EB1DFF855
:1017B00030C06745F3D1DFF824C0DCF810C00CF06E
:1017C000010CBCF1000F00D101202CB9DFF80CC0D6
:1017D000DCF814C0A3F800C0BDE8F081008002402E
:1017E000FFFF0400416821F00041416070470000A4
:1017F0000648006840F00400044908600448806915
:1018000040F00200024988617047000000800240F9
:10181000009002404FF000402649096808602548C2
:101820000068808800F48040E8B123480068A0B1D7
:1018300021480068C0681F4908601F4800680068A8
:1018400028B11D48006800681B49086030E01A484C
:1018500000681030184908602AE016480068C0681F
:101860001449086024E013480068808800F40040B0
:1018700060B11248C0680F4908600F480068B8B1ED
:101880000D48006800680C49086011E00B480068CA
:10189000C0F3840107480068103008440549086017
:1018A0000548006820B1044800681030024908600B
:1018B0007047000008000020100000200090024047
:1018C00000B5002321480068026802F0004008B11A
:1018D000002000BD02F4004028B902F4807010B16D
:1018E00002F4007018B9FFF795FF0120F1E702F04C
:1018F000200030B102F0010018B1FFF78BFF01208A
:10190000E7E702F00040A8B902F4004090B902F401
:10191000807078B102F4007060B1C2F30D431B1FF8
:101920000B48006800F0007068B102F0200050B170
:101930001B1D08E007480068401C06490860FFF7C7
:1019400069FF0120C5E71846C3E700000800002032
:10195000008002401400002010B5002100200B4B35
:101960001B6843F00103094C236000BF074B1B6851
:1019700003F00102491C12B1054B9942F6D1034B09
:101980001B6803F0010303B9012010BD0090024061
:10199000FFFF040010B502F089FCFFF771FBFFF7B1
:1019A00045FE0648006808B900BFFEE70448FFF797
:1019B000F5FD03480A38FFF7F1FD10BD2C000020AB
:1019C00010070400026822F44002026002680A4321
:1019D0000260704700B50748006840F008000549FC
:1019E000086000F00BF80448806940F40050024998
:1019F000886100BD008002400090024010B50022C6
:101A00000020094B9B6943F48013074CA36100BF7E
:101A1000054B9B6903F48011521C11B1034B9A4290
:101A2000F6D301B9012010BD00900240FFFF040071
:101A30002DE9FE4F0546884616464FF00A09CA466C
:101A40000A270024BB46002002900190009000BFAE
:101A500068E004EB44005A4A02EBC000017D0A2F03
:101A600004D119B900BF00BF274659E0002957D05B
:101A700000BF00BFB5B104EB4402514B03EBC202FF
:101A80002868526890420DD13EB104EB44001A46DA
:101A900002EBC0008068B04204D100BF00BF204606
:101AA000BDE8FE8F012928D104EB4400444A52F8D6
:101AB000300080B104EB440002EBC000428A02987F
:101AC00082422DDBA34604EB44003D4A02EBC000FA
:101AD000408A029024E004EB4400394A02EBC00043
:101AE000428A019882421BDBA14604EB4400344A3F
:101AF00002EBC000408A019012E0022910DB04EBE7
:101B000044002F4A02EBC000428A0098824207DB61
:101B1000A24604EB44002A4A02EBC000408A00902F
:101B2000601C04B20A2C94DB08F0020020B90A2FD2
:101B300007D108F0010020B900BF00BF4FF0FF300F
:101B4000AEE70A2F02DA3C4600BF1DE0BAF10A0FE9
:101B500004DA544600BF00BF00BF10E0B9F10A0F1D
:101B600002DA4C4600BF0AE0BBF10A0F02DA5C461B
:101B700000BF04E000BF00BF4FF0FF3090E700BFA0
:101B800000BF204600F01EF800BF00BF00BF00BF2E
:101B900035B104EB44010A4A02EBC10128684860F0
:101BA000002004EB4401064A02EBC101488204EB29
:101BB0004400114601EBC0008660204670E700003B
:101BC00068D5002010B5044604EB4400194951F8CB
:101BD000300070B100BF00BF04EB4401154A52F859
:101BE000310002F0FFFE002004EB4401114A42F8EC
:101BF0003100002004EB44010E4A02EBC1010875DC
:101C000004EB440102EBC101488204EB440102EB06
:101C1000C101886004EB440102EBC101486004EBA0
:101C20004400114601EBC00003490A68C26089887C
:101C3000018210BD68D500203E8F0008F0B587B046
:101C400007460D4600BF35B900BF35A0FEF710FBB3
:101C500000BF07B0F0BD00BF7C682088B0F5807F72
:101C600008D12079062805D16079042802D160883E
:101C7000082805D000BF00BF384602F0B3FEE8E7F1
:101C8000D4F80E000690A0690590686808B900268F
:101C900007E005986968884201D1012000E0002032
:101CA00006460EB1012000E00220034604F10802BE
:101CB00006A9284600F002FBE088B0F5807F03D03B
:101CC000B0F5007F22D11AE000BF00BF86B102222A
:101CD00006AB04F10800291DCDE90232CDE9001060
:101CE00005F12A0302462631284600F0FFF905E0F7
:101CF000686808B900BF01E000BF00BF09E000BF8D
:101D000000BF06A92846FEF74FFE02E000BF00BF55
:101D100000BF00BF384602F065FE00BF99E7000033
:101D20006E6574696620213D204E554C4C000000C4
:101D30002DE9FE43044689461546A84600BF00BF6C
:101D400000BF00BF00BF00BF2146286800F0F2FDC1
:101D500008B1494F85E0287800F0F000E02815D15F
:101D600001208DF8040000208DF805005E208DF81C
:101D70000600687800F07F008DF80700A8788DF8DD
:101D80000800E8788DF8090001AF69E02868A168CB
:101D90000840D4E90112114088420ED0288880B250
:101DA0004FF6A961884208D0E06810B104F10C0830
:101DB00003E06FF00300BDE8FE833048007800EBDD
:101DC00040002F4901EBC000007D02281BDB2B489F
:101DD000007800EB400001EBC0008068A04212D107
:101DE0002649097801EB4101254A02EBC101D8F8E7
:101DF00000004968884206D12048027849462046BA
:101E000000F040F8D7E7002622E006EB46001C4928
:101E100001EBC000007D022818DB06EB460001EB59
:101E2000C0008068A04211D106EB4601144A02EBC3
:101E3000C101D8F800004968884207D10F480670F0
:101E400032464946204600F01DF8B4E7701CC6B281
:101E50000A2EDADB4A464146204600F06FF8AAE730
:101E600000BF4FF400603B4604F12A02494600904F
:101E7000204600F0F5FA9EE7388F00080C0100209C
:101E800068D50020F8B505460E46144600BF00BFD1
:101E900004EB4400284901EBC000007D022839D141
:101EA00004EB440001EBC000408AB0F58E7F11DDE9
:101EB00004EB44000A4602EBC000011D284600F076
:101EC00067F938BB032004EB44011B4A02EBC10154
:101ED00008751FE004EB4400174901EBC000408A7D
:101EE000B0F5877F16DB04EB44000B4603EBC00024
:101EF00000F10C0204EB440003EBC000011D284676
:101F000000F054F930B9032004EB44010A4A02EB13
:101F1000C10108754FF40060009004EB44000649CD
:101F200001EBC00000F10C0305F12A0231462846FE
:101F300000F096FAF8BD000068D500202DE9FC5F9E
:101F400080460E46154608F12A0001904FF0FF3AF0
:101F50004FF0000B4146306800F0ECFC38B93078A7
:101F600000F0F000E02802D00EB1306828B900BFC0
:101F700000BF6FF00F00BDE8FC9F424601213046D4
:101F8000FFF756FD8146B9F1000F07DA00BF00BF29
:101F90000DB100BF00BF4FFA89F0ECE700BF00BFF2
:101FA00009F0FF0404EB44004E4901EBC000007D42
:101FB00078B94FF0010B012004EB4401494A02EBD0
:101FC000C101087504EB4400114601EBC000C0F8E4
:101FD000088000BF00BFBBF1000F00D1F5B931464A
:101FE000404600F0D5F88246BAF1000F13D104EB59
:101FF00044003C4901EBC000007D01280BD1BBF13E
:10200000000F08D100BF00BF002004EB4401354A97
:1020100002EBC10148820DB95046ACE700BF00BFDA
:1020200004EB44002F4901EBC000007D022811DBC6
:102030002D4804704FF40060009004EB440001EB65
:10204000C00000F10C0329464046019A00F008FA4E
:10205000824644E004EB4400224901EBC000007DCD
:1020600001283CD1002000902F4609E000BF00BFAE
:10207000387B00F0400010B10120009002E03F6882
:10208000002FF3D100BF009838B12A464FF42071D9
:102090000E2002F003FB074603E02F46384602F00D
:1020A00057FDBFB104EB44000E4951F8300040B178
:1020B00000BF00BF04EB44010A4A52F8310002F0AD
:1020C00091FC04EB4400074941F830704FF0000ADE
:1020D00000BF03E000BF00BF4FF0FF3A00BF504613
:1020E00049E7000068D500200C0100202DE9FC5FC5
:1020F00081460E4617469846DDE90CAB002001905C
:1021000000BF00BF4FF420721C210E2002F08CF99A
:1021100005462DB900BF00BF4FF0FF30BDE8FC9F62
:1021200000BF00BF6C6800BF00BF0F9801F0CAFA83
:10213000E08000BF00BFD8F80000A060B8F804003D
:10214000A081DBF80000C4F81200BBF80400E082B4
:10215000DAF80000C4F80E000E980068A0614FF491
:10216000807020800820608006202071042060712B
:1021700040F606003B46324629460090484600F0AD
:102180006FF9284602F02EFC00250198C6E70000F2
:1021900070B504460D4600BF00BF034A29462046DD
:1021A00000F004F870BD0000388F00087FB50446C9
:1021B0000D4616460121074A201D04F12A038DE829
:1021C00025000391324619462046FFF78FFF04B0E1
:1021D00070BD00003E8F000870B500BF00BF002436
:1021E00066E004EB4400344901EBC000057D002D9E
:1021F0005DD004EB440001EBC000408A401C04EBBE
:1022000044012D4A02EBC101488204EB440011460F
:1022100001EBC000408AB0F5967F0DDA04EB440074
:1022200001EBC000007D01280CD104EB440001EB60
:10223000C000408A052805DB00BF00BF2046FFF72D
:10224000C1FC34E004EB44001B4901EBC000007DFD
:10225000032807D1042004EB4401174A02EBC10113
:10226000087524E004EB4400134901EBC000007D35
:10227000042807D1022004EB44010F4A02EBC101FC
:10228000087514E004EB44000B4901EBC000007D2D
:1022900001280CD104EB44020B4603EBC202111DD2
:1022A00004EB440203EBC2029068FFF771FF641C69
:1022B0000A2C96DB70BD000068D500202DE9F8439C
:1022C00006460D461746984600BF00BF00BF00BF38
:1022D0005DB1286848B13146286800F02BFB20B971
:1022E000287800F0F000E02805D100BF00BF6FF0B3
:1022F0000F00BDE8F883324641462846FFF798FBB9
:102300000446002C01DA60B2F3E7022004EB44013A
:102310001C4A02EBC101087504EB4400114601EBB5
:10232000C000866000BF00BF04EB440001EBC000AA
:102330003968C160B9880182002004EB440102EBD6
:10234000C101488204EB4400114651F83000B0B19D
:1023500004EB440051F83090002004EB440142F8B3
:1023600031004FF400603B4606F12A0249460090D6
:10237000304600F075F8484602F034FB00BF0020FC
:10238000B7E7000068D500202DE9F04104460E466D
:102390004FF00E0860890E2800DC59E0E07B18B988
:1023A00096F83400401CE073656800BF00BFAF8939
:1023B000287800F00100B0B12878012809D16878A8
:1023C00088B9A8785E280ED1607B40F01000607359
:1023D00009E0062221492846FDF7C6FF18B9607BAF
:1023E00040F008006073082F03D0B7F5C16F2AD101
:1023F00014E096F8310000F0080000B928E04146EA
:10240000204602F0AFFB20B100BF00BF00BF00BFFD
:102410001EE03146204600F0B5FB15E096F831008D
:1024200000F0080000B913E04146204602F09AFB94
:1024300020B100BF00BF00BF00BF09E03146204609
:10244000FFF7FCFB00E003E000BF0020BDE8F081E7
:10245000204602F0C7FA0020F8E70000388F000895
:102460002DE9F04706460D4617469846DDF82090C0
:10247000484601F027F982460E21284601F096FFD2
:1024800000B117E06C68A4F80CA0D8F80000206038
:10249000B8F80400A0803868C4F80600B8886081E5
:1024A00000BF00BF00BF00BF29463046B269904759
:1024B000BDE8F08700BF00BF6FF00100F8E7000043
:1024C00010B5044600BF00BF472084F83200442105
:1024D00033200155044860610448A061204601F0A2
:1024E0001BF8002010BD0000311D00080536000853
:1024F00070B50446204601F055F8064616B94FF06F
:10250000FF3070BD214630462269904705462DB107
:1025100000BF00BF304602F065FA00262846F0E70B
:1025200070B504460D46E1B2064A106806F094FB09
:1025300000BF04490868072106F005FC0028F8D010
:10254000204670BD908D000801480068704700006B
:1025500000000020F0B503461C6A5D6A00200DE013
:102560000126864016403EB187000F26BE40B44388
:10257000860001FA06F63443461CB0B20828EFD3B1
:10258000082011E00126864016405EB1A0F1080641
:10259000B7000F26BE40B543A0F10806B60001FA09
:1025A00006F63543461CB0B21028EBD31C625D62C0
:1025B000F0BDF0B504460D4616462168E2680020DD
:1025C00019E0012787401F409FB14FEA400C0327C5
:1025D00007FA0CF7B943470005FA07F739434FEA02
:1025E000400C032707FA0CF7BA43470006FA07F72F
:1025F0003A43471CB8B21028E3D32160E260F0BD33
:10260000F0B50C461546012C03D146681E434660C2
:1026100002E046689E434660826800210DE0012684
:102620008E401E403EB14F000326BE40B2434E00D6
:1026300005FA06F632434E1CB1B21029EFD3826080
:10264000F0BD70B505460C4622460321284600F031
:10265000EDF870BD2DE9F04F85B004468A4672480A
:1026600080680390039800780007860E142E02DA23
:1026700000BF00BFCFE06089042802D200BF00BFC6
:10268000C9E06068057860684078049015B1082D4D
:1026900072D100E0BAE0DFF8909109F114096248C4
:1026A000007D00F0F000E02802D100BF00BFB6E0DE
:1026B0005D4A1168506900F03DF910B100BF00BFDC
:1026C000ADE000BF00BF2089082802D200BF00BFD4
:1026D000A1E0204600F003F938B100BF00BF20465A
:1026E00002F080F905B0BDE8F08F06F10E0120463A
:1026F00001F05CFE78B3208930441FFA80FB20890A
:10270000584502DD00BF00BF89E04FF420725946F2
:102710000E2001F089FE074617B900BF00BF7EE01A
:10272000798906F10800814205D200BF00BF384612
:1027300002F058F973E0324678680399FDF740FEDD
:102740003146384602F00EFA30B100BF00BF3846BD
:1027500002F048F963E010E02146384601F0B6FF88
:1027600028B100BF00BF384602F03CF957E02046D0
:1027700002F038F93C4609E034E006F10E0120464B
:1027800002F0F0F910B100BF00BF48E0D4F80480B7
:102790003146204601F00AFE08B100BF21E067681B
:1027A000D9F80000F860204800693861002088F8F6
:1027B0000000A8F80200FF20387200207881012074
:1027C0000021FF230A46CDE9010A0091494620462F
:1027D00000F0FAFA8346BBF1000F01D000BF00BF42
:1027E00000BF13E0032D0ED00B2D0CD00C2D0AD002
:1027F000042D08D0052D06D00D2D04D00E2D02D0AD
:10280000112D00D000BF00BF00BF00BF00BF204699
:1028100002F0E8F866E7204602F0E4F862E72046B6
:1028200002F0E0F800BF5DE7443E00202DE9FF5FC5
:102830000546894692464FF01C082889404501DA32
:10284000B5F8088008F1080081B24FF42072222008
:1028500001F0EAFD06461EB900BF00BFBDE8FF9FBC
:1028600000BF00BFD5F804B000BF00BF00BF00BF6D
:1028700000BF00BF00BF00BF00BF00BF746884F886
:10288000009084F801A00020A080E0806968726850
:1028900002F108004246FDF793FDDBF80C000390BF
:1028A00003A800F02FFC07465FB1002060800120E4
:1028B0000021FF2303AACDE901070091304600F073
:1028C00083FA304602F08EF800BFC7E770B50546C0
:1028D0000C4622460B212846FFF7A8FF70BDF0B535
:1028E000064600270024354619E06989686801F02A
:1028F0009BF80444A0B200EB1444688900EBD0714B
:102900004910A0EB410149B10FB9012000E00020BE
:102910000746E0B2C4F3072141EA00242D68002DE8
:10292000E3D127B1E0B2C4F3072141EA0024E04338
:1029300080B2F0BD18B502460092D04300B10AB98A
:10294000012018BD91F8310000F0020008B9002004
:10295000F7E74868904201D10020F2E700988B68C1
:102960001840D1E901342340984208D1886822EA0E
:1029700000008C68E343984201D10120E1E7002088
:10298000DFE700002DE9F74F8CB004460F464FF00B
:102990000008398DA1F11400C11700EB5171C1F38A
:1029A000CF0A1420059060680990DDF8249099F80A
:1029B000000000F00F001421B1EB800F04D06FF085
:1029C00005000FB0BDE8F08F00BF6089142807DA5A
:1029D00000BF64A0FDF74CFC00BF6FF00500F0E7FE
:1029E00000BFB9F8060000F06DFE04900498C0F333
:1029F0000C000790049800F40050039020891438CC
:102A00001FFA80FBA4E04FF6FF7000EACA005845A9
:102A100001DD584603E04FF6FF7000EACA00089057
:102A20004FF4207214210E2001F0FEFC054605B97A
:102A300094E000BF00BF142268680999FDF7C0FC4C
:102A4000D5F8049008980A9047E061890598081A1B
:102A500080B2029000BF00BF02990A98884201DA52
:102A60000A9800E002988046B8F1000F03D10020D8
:102A70000590246831E000F091FB06461EB9284617
:102A800001F0B0FF6AE061680598084433464122CE
:102A90004146CDE90008002001F07EFD0B900B9827
:102AA00030B9304600F07FFB284601F09BFF55E02F
:102AB000204602F04DF874613148306128460B9988
:102AC00001F098FD0A98A0EB080080B20A900A98DD
:102AD00010B100200590246800BF0A980028B4D1E6
:102AE0000598404480B20590388D1438584501DB74
:102AF000012000E0002006900798C0F30C0004902D
:102B0000069808B1039818B1049840F40050049056
:102B1000049800F0D7FDA9F806000899143188B28E
:102B200000F0D0FDA9F802000020A9F80A007B6996
:102B3000294638460E9A9847284601F053FF0898D0
:102B4000ABEB00001FFA80FB0798504480B207905F
:102B5000BBF1000F7FF457AF002032E74FF0FF309A
:102B60002FE700006970345F6672616728293A2098
:102B70007062756620746F6F2073686F72740000E6
:102B8000F93400082DE9F04706460F464FF0010AD8
:102B9000756828780421B1EB201F07D000BF00BF63
:102BA000304601F01FFF0020BDE8F08728780007BD
:102BB0004FEA9068688800F085FD81463189494573
:102BC00003DD4946304601F083FF7089404505DB4F
:102BD0003089484502DBB8F1140F13DAB8F1140F4D
:102BE00001DA00BF00BF7089404501DA00BF00BFB5
:102BF0003089484501DA00BF00BF304601F0F2FEDF
:102C00000020D1E728695F494861E8680861084603
:102C1000007D00F0F000E0280AD197F8310000F0C4
:102C2000010018B1786808B13C461CE000241AE0A5
:102C3000384600F0ABF808B13C4614E00024514897
:102C4000007D7F280FD05048046809E0BC4200D1C5
:102C500005E0204600F09AF800B103E000BF2468C8
:102C6000002CF3D100BF84B9687A11280DD105EB8F
:102C7000080000BF00BF4188B1F5884F04D100BFF4
:102C800000BF3C464FF0000A00BFBAF1000F15D05C
:102C90003C48006990B13B4908693946FFF74AFE54
:102CA00028B93848007C00F0F000E02806D100BFC9
:102CB00000BF304601F096FE002075E734B900BF32
:102CC00000BF304601F08EFE00206DE7E8884FF629
:102CD0003F71084048B100BF00BF304600F002F924
:102CE00006460EB900205FE7756800BF00BF00BF51
:102CF00000BF244804604760856028780007800E84
:102D0000204988814146304601F02CFF687A01282D
:102D10000DD0062806D011280ED13946304605F0D0
:102D2000DBFC24E03946304602F090FF1FE03946D4
:102D30003046FFF78FFC1AE0124948692146FFF739
:102D4000F9FD70B90F48007D00F0F000E02808D0D0
:102D50000FFA88F1304601F092FE02213046FFF76B
:102D600070FC00BF00BF304601F03CFE00BF00BF5A
:102D700000200449086048608860888108614861D3
:102D800000BF11E7443E00208C00002010B504462F
:102D900000BF00BF94F8310000F0010080B160680E
:102DA00070B1084840696168884205D005494869A2
:102DB0002146FFF7BFFD18B100BF00BF012010BDC5
:102DC0000020FCE7443E00202DE9FE4F07460C465C
:102DD00015469846DDE90C9A0E9EA34625B10CB126
:102DE000206808B906F1040B43462A46594638467E
:102DF000CDE9009A029600F003F8BDE8FE8F0000CE
:102E00002DE9F84F05460F4690469A46DDF828B062
:102E10000C9E00BF00BFB8F1000F3CD04FF014096A
:102E20001421284601F0C2FA28B100BF00BF6FF09C
:102E30000100BDE8F88F6C6800BF00BF84F808A0EF
:102E40000B986072D8F80000206148464FEAE9719B
:102E500009EB9171C1F3870141F04001217084F8C1
:102E600001B0288900F02EFC60800020E0801B4823
:102E7000008800F027FCA08018480088401C1749F3
:102E800008801FB916480068E06001E03868E0601B
:102E9000002060810BE06889142804DA00BF00BFBD
:102EA0006FF00100C5E76C6820690090E84600BF3C
:102EB00000BF308D48B12889318D884205DD4246FA
:102EC00031462846FFF75EFDB3E700BF00BF42462C
:102ED0002946304673699847ABE700000E01002091
:102EE000308F00082DE9F14F84B0049845682878A8
:102EF00000F00F001421B1EB800F02D000BF00BF23
:102F0000F5E0E88800F0DEFBC0F30C004FF6FF713F
:102F100001EAC00A688800F0D5FB07462878000758
:102F2000810E02910299B94200DDE0E00298381A60
:102F300087B2049801F0A9FB0646704801888819F9
:102F40000A280CDD3146284600F092FA20B16B4881
:102F5000008830440A2802DD00BF00BFC7E068488F
:102F6000046813E06069E968884209D1A0692969A9
:102F7000884205D1A089A988884201D1012000E0BA
:102F8000002010B100BF00BF02E02468002CE9D18E
:102F900000BF34B93146284600F0EEF9044694B932
:102FA000A5E0E88800F08EFBC0F30C0058B9E0897A
:102FB00000F088FBC0F30C0028B11422294604F16C
:102FC0000800FDF7FDF9E888012121EA5010019081
:102FD000019850B10AEB070188B2504503DB4FF668
:102FE000EB71884200DD77E000BF2046019A04992A
:102FF00000F0E2F883460BF1010000B96CE03F48B5
:10300000008830443D490880019850B10AEB07011F
:1030100088B2A083A17F41F00101A17700BF00BF6A
:1030200000BFBBF1010F53D1A08B143080B20090D0
:1030300060684068D0F8009060684568142204F128
:1030400008012846FDF7BCF9009800F03BFB6880BA
:103050000020E8806881606804900DE0D9F80400E1
:1030600003901421484601F07DFD4946049801F083
:10307000C1FA0398D0F80090B9F1000FEED12048C2
:103080000068844202D14FF000080EE01C48D0F8DE
:10309000008006E0D8F80000A04200D104E0D8F893
:1030A0000080B8F1000FF5D100BF4146204600F086
:1030B0004DF9049801F0E9FA064600BF00BF0F4839
:1030C0000088801B0D490880049805B0BDE8F08F8A
:1030D00000BF00BF0020F8E700BF00BF606828B94C
:1030E00000BF00BF0021204600F030F900BF00BF44
:1030F00000BF049801F076FC0020E6E714010020F0
:103100001001002010B502462248016821E091F824
:10311000310000F00100D8B191F83100C0F3800017
:10312000B0B14868A0B110688B681840D1E901348B
:103130002340984201D1084610BD91F8310000F0BB
:10314000020028B91068CB68984201D10846F3E71D
:1031500009680029DBD110480068A0B10E4800685A
:1031600090F8310000F0010068B10B48006890F859
:103170003100C0F3800030B107480068406810B1EA
:1031800010787F2803D100BF00BF0020D4E7024899
:103190000068D1E78C0000209000002010B50520C9
:1031A00000F09EFE10BD10B5044600BF00BF2146D2
:1031B000052000F047FE10BD2DE9F74F84B007460B
:1031C0008846002501200190D8F804000290029959
:1031D000488800F077FA8346029800780007800E4E
:1031E00003900398584503DD681E07B0BDE8F08FD3
:1031F0000398ABEB00001FFA80FB0299C88800F02F
:1032000061FAC0F30C004FF6FF7101EAC00A00BF7B
:1032100000BFD8F8044000202060A4F804A00AEB06
:103220000B00E080E088504502DA4FF0FF30DCE729
:10323000D7F804903EE0D9F80460A088B1888842AD
:1032400020DAC4F800909DB1A088E988884203DBA9
:10325000E088B188884202DD4FF0FF30C5E7C5F84D
:103260000080E888A18888420BD00020019008E007
:10327000E088B188884202DD4FF0FF30B5E7C7F83B
:1032800004801AE0A088B188884202D14FF0FF3054
:10329000ABE7A088F188884202DA4FF0FF30A4E75C
:1032A0002DB1E888B188884201D000200190D6F87D
:1032B00000903546B9F1000FBDD100BFB9F1000F44
:1032C0000FD155B100BF00BFC5F80080E888A188C4
:1032D000884206D00020019003E000BF00BFC7F87D
:1032E0000480069818B9B87F00F0010060B3019817
:1032F00020B3786818B178684068808810B10020E1
:1033000001901BE02546D4F800900BE0D9F804406A
:10331000E888A188884202D00020019005E0254677
:10332000D4F80090B9F1000FF0D100BF019828B196
:1033300000BF00BF00BF00BF00BF00BF019808B1C1
:10334000012052E7002050E700204EE770B5044608
:103350000D4608480068A04203D10649206808606D
:1033600003E000BF00BF206828602146042000F071
:1033700069FD70BD1001002070B505460E460420A1
:1033800000F0AEFD044674B93146284600F070F8EE
:10339000B04203DB042000F0A3FD04461CB900BFCB
:1033A00000BF002070BD20212046FDF770F80F20DF
:1033B000E07706480068206004480460142229462B
:1033C00004F10800FCF7FCFF2046EBE710010020A9
:1033D0002DE9F04704468946002600BF00BFB9F139
:1033E000000F01D000BF00BF6068D0F80480B8F8BB
:1033F0000400C0B96568D8F800006060142204F1C8
:1034000008016868FCF7DCFF01212846FFF75EFA37
:10341000284601F03AF9074600BF00BFF01986B20E
:10342000284601F0DFFA656810E0D5F80480AA4666
:10343000D8F80050504601F028F9074600BF00BFF9
:10344000F01986B2504601F0CDFA00BF002DECD144
:1034500049462046FFF77AFF00BF00BF03480088B7
:10346000801B024908803046BDE8F0871401002027
:103470002DE9F84F05468946002700BF0026B246D1
:103480000020009083461B48046821E06069E968D9
:10349000884207D1A0692969884203D1A089A988F7
:1034A000884201D0012000E0002068B10BF1010B3F
:1034B0001EB92646CDF800A006E0E07FF17F8842E5
:1034C00002DC2646CDF800A0206800B1A2462468A0
:1034D000002CDBD12EB130460099FFF779FF8046F2
:1034E00047444F4502DABBF1010FC7DC3846BDE85F
:1034F000F88F00001001002070B505462C4600BF73
:1035000000BF00BF00BF606910B1606901F06AFAD6
:103510002046FFF748FE70BD70B50446062084F8CB
:103520003000022084F82A000A212B2001550F21A7
:103530002C2001550E212D2001550D212E20015545
:1035400006212F20015504F12A010020FEF756F82C
:1035500040F2DC5020850E2084F83100C004FDF7D5
:1035600043FC4FF46020FDF73FFC002605E00B49CB
:1035700001EB0610FEF736F9761C052EF7D3002571
:1035800007E0074901EB05104FF44001FEF71AFA76
:103590006D1C052DF5D3FDF78BFC70BD18010020C7
:1035A000680100202DE9F047814600260025022110
:1035B00013480068FDF7E6FB87B205211048006854
:1035C000FDF7E0FB80464FF4C1723946002000F061
:1035D0002BFF054665B12C4608E0628908EB060121
:1035E0006068FCF7EDFE608906442468002CF4D185
:1035F00000210846FDF762FC2846BDE8F087000080
:10360000080000202DE9F04180460F46002500BF4C
:103610000F480068006800F000400028F8D1012140
:103620000B480068FDF7AEFB06463C4607E06289A2
:1036300070196168FCF7C4FE608905442468002C99
:10364000F5D129460020FDF7B5FC0020BDE8F0814A
:1036500004000020C0218171A822C27101220272DF
:103660001B224272022101700A2141700F218170D8
:103670000E21C1700D21017106214171C02181729D
:10368000A822C272012202737B224273FF2181733E
:10369000FF22C273027400224274C0218174A822E6
:1036A000C27401220275427570470146080601F492
:1036B0007F4240EA022001F47F0240EA122040EA01
:1036C0001160704701460806000C40EA112070475F
:1036D00001B50C4900980968401AFA2804D3094931
:1036E0000098086004F0ACFE074900980968401A89
:1036F000B0F57A7F04D3044900980860FEF76CFDAA
:1037000008BD0000200000202400002010B5024861
:10371000FEF7EEFE10BD0000F43D002000B587B0BE
:1037200000F016FA00F0B6FB8948FFF793FF8848CF
:10373000807A01068648C07A41EA00418448007BCD
:1037400041EA00208249497B084302068048807A8A
:1037500001067F48C07A41EA00417D48007B41EA8A
:1037600000207B49497B084300F47F4042EA002265
:103770007748807A01067648C07A41EA0041744869
:10378000007B41EA00207249497B084300F47F0036
:1037900042EA10226E48807A01066D48C07A41EAFA
:1037A00000416B48007B41EA00206949497B08439E
:1037B00042EA1060674948606548807B01066448BA
:1037C000C07B41EA00416248007C41EA0020604938
:1037D000497C084302065E48807B01065C48C07B4A
:1037E00041EA00415A48007C41EA00205849497C9E
:1037F000084300F47F4042EA00225548807B0106DE
:103800005348C07B41EA00415148007C41EA002016
:103810004F49497C084300F47F0042EA10224C489B
:10382000807B01064A48C07B41EA00414848007C51
:1038300041EA00204649497C084342EA1060454974
:1038400088604348807C01064148C07C41EA0041D1
:103850003F48007D41EA00203D49497D084302067A
:103860003B48807C01063A48C07C41EA0041384828
:10387000007D41EA00203649497D084300F47F403D
:1038800042EA00223248807C01063148C07C41EA8D
:1038900000412F48007D41EA00202D49497D084321
:1038A00000F47F0042EA10222948807C0106284863
:1038B000C07C41EA00412648007D41EA00202449BD
:1038C000497D084342EA10602249C8602048417996
:1038D00000791F4AD278CDE9002002911C488378F4
:1038E000427801781CA0FCF7C3FC1948407B00908B
:1038F0001748037BC27A817A25A0FCF7B9FC1448EB
:10390000407C00901248037CC27B817B2CA0FCF79A
:10391000AFFC0F48407D00900D48037DC27C817C48
:1039200033A0FCF7A5FC3E483E49002204ABCDE99C
:103930000021029005AA06A9064800F0F9FA0548F8
:1039400000F078FC034800F07DFC07B000BD0000EB
:103950002C3E0020F43D0020CDF8BFA8656EB5C414
:103960004D4143B5D8D6B7CEAA3A2E2E2E2E2E2EA6
:103970002E2E2E2E2E2E2E2E2E2E25642E25642E0D
:1039800025642E25642E25642E25640D0A00000072
:10399000BEB2CCAC4950B5D8D6B72E2E2E2E2E2E78
:1039A0002E2E2E2E2E2E2E2E2E2E2E2E2E2E2E2E37
:1039B0002E2E25642E25642E25642E25640D0A00E6
:1039C000D7D3CDF8D1DAC2EB2E2E2E2E2E2E2E2EC0
:1039D0002E2E2E2E2E2E2E2E2E2E2E2E2E2E2E2E07
:1039E0002E2E25642E25642E25642E25640D0A00B6
:1039F000C4ACC8CFCDF8B9D82E2E2E2E2E2E2E2EFA
:103A00002E2E2E2E2E2E2E2E2E2E2E2E2E2E2E2ED6
:103A10002E2E25642E25642E25642E25640D0A0085
:103A200089230008C1240008F8B505460A462B463C
:103A300000200090002103F0010636B1002A04DDC9
:103A400013F8010B8DF80100521E1C4603E034F8F8
:103A5000027B3944921E012AF9DC002A02DD20781B
:103A60008DF80000BDF80000014488B200EB114160
:103A700088B200EB114126B1C8B2C1F3072747EA6B
:103A8000002188B2F8BD0000FCF7C6FEFCF7D1FEAD
:103A9000FDF780FFFFF742FE04A0FCF7E9FB04E01E
:103AA000FEF752FD0446FFF713FEF9E7696E6974ED
:103AB0002073757363636573730D0A0070B50546F3
:103AC00015B900BF00BF70BD05F0030030B100BFE5
:103AD00000BF00BF00BF00BF00BFF4E7A5F10804AE
:103AE00018480068844205D305F10C00164909689E
:103AF000884206D900BF00BF00BF00BF00BF00BFA3
:103B0000E1E7207930B900BF00BF00BF00BF00BFB0
:103B100000BFD8E7204600F049F830B900BF00BF29
:103B200000BF00BF00BF00BFCDE7002020710748E5
:103B30000068844201D205480460204601F04EF836
:103B400000BFC0E75C00002060000020640000208F
:103B500010B500BF00BF114820F0030010490860F5
:103B6000084604684FF4A040208000206080207147
:103B70004FF4A04001F080F80A490860012009686C
:103B800008714FF4A0400749096808800549096891
:103B90004880034800680449086010BD5F3E00206B
:103BA0005C00002060000020640000202DE9F0414E
:103BB0000446204600F0ACF80546208801F05CF889
:103BC0000646608801F058F807462088B0F5A04FF7
:103BD00010D86088B0F5A04F0CD86088A84202D0F9
:103BE0003888A84206D106480068864205D0708809
:103BF000A84202D00020BDE8F0810120FBE70000D0
:103C0000600000202DE9F0478046B8F1000F02D196
:103C10000020BDE8F08708F1030020F0030085B222
:103C20000C2D00D20C25B5F5A04F01D8454501DA81
:103C30000020EEE73448006800F06AF806465BE0D2
:103C4000304601F019F804462079002850D1218827
:103C500006F10800081AA8424AD3218806F1080094
:103C6000091A05F1140081421DD306F10800284409
:103C70001FFA80F900BF00BF484600F0FDFF07466D
:103C800000213971218839807E80A4F800900120BC
:103C900020713888B0F5A04F07D0388800F0ECFFCD
:103CA000A0F8029001E001202071174800688442CA
:103CB00015D11548D0F800A004E0BAF8000000F0D3
:103CC000DBFF82469AF8040018B11048006882456C
:103CD000F3D10D48C0F800A000BF00BF00BF00BF77
:103CE00000BF00BF00BF00BF00BF04F1080090E7A5
:103CF000304600F0C1FF0688C5F5A040B0429FD80D
:103D000000BF00BF002084E76400002060000020A6
:103D1000014602480088081A80B270475C00002003
:103D20002DE9F84F81468B460BF1030020F003008C
:103D300085B20C2D00D20C25B5F5A04F01D85D45FC
:103D400002DA0020BDE8F88F00BF00BF3A480068E3
:103D5000814503D339480068814505D300BF00BFC2
:103D600000BF00BF4846EDE7A9F108084046FFF74D
:103D7000CFFF0646B8F80010881B08381FFA80FAF3
:103D800000BF00BF554501DD0020DBE7554501D1EF
:103D90004846D7E7B8F8000000F06EFF04462079E7
:103DA00020BB00BF00BF2088009006F10800284417
:103DB00087B223480068A04204D1384600F05CFF77
:103DC0001F490860384600F057FF04460020207164
:103DD000009820806680A8F800702088B0F5A04F79
:103DE00003D0208800F048FF478023E005F114004D
:103DF00050451FD806F10800284487B200BF00BF15
:103E0000384600F039FF04460D480068844201D26C
:103E10000B48046000202071B8F800002080668004
:103E2000A8F800702088B0F5A04F03D0208800F0DB
:103E300023FF4780484685E75C00002060000020A3
:103E40006400002070B504460D4600BF092C05DB58
:103E500000BF08A0FCF70CFA00BF70BD00BF05B999
:103E6000FBE70B4951F824002946FCF725FF00BF6A
:103E7000F3E700006D656D705F667265653A2074EA
:103E8000797065203C204D454D505F4D41580000F4
:103E9000BC8E000810B5002406E0054951F8240046
:103EA00000F008F8601C84B2092CF6D310BD0000A5
:103EB000BC8E000810B50023C46823608368DB1C37
:103EC00023F00301002207E0C3681B680B60C3688E
:103ED000196083881944521CC3889342F4DC10BDD6
:103EE00070B5044600BF092C06DB00BF07A0FCF735
:103EF000BFF900BF002070BD00BF0C4951F824007D
:103F0000FCF7E4FE05462846F5E700006D656D7098
:103F10005F6D616C6C6F633A2074797065203C2032
:103F20004D454D505F4D415800000000BC8E0008CB
:103F30002DE9F04704460D4616461F46DDE9098A7D
:103F4000DDF8209000BF3CB900BF40A0FCF790F91D
:103F500000BF0020BDE8F08700BF00BFB8F1000F30
:103F600006D100BF40A0FCF783F900BF0020F1E7B5
:103F700000BF05B9454D06B9444E07B9434F00206F
:103F80006060A060E060424860610020208584F8A5
:103F900031006062E061C4F820903E48007884F807
:103FA0003400C4F810A03B4632462946204600F0B3
:103FB00011F92046C04708B10020CBE700BF94F8B4
:103FC0003420FF2A02D1002284F834200021324A12
:103FD000106811E000BF00BF491C00BF00BF90F88F
:103FE000342094F834309A4205D194F83420521C8D
:103FF00084F8342002E000680028EBD100BF0028DC
:10400000DDD194F83400FE2803D100202149087046
:1040100004E094F83400401C1E4908701E480068F3
:1040200020601D48046000BF00BF00BF00BF00BF8C
:1040300000BF00BF00BF00BF00BF00BF00BF00BF88
:1040400000BF00BF00BF204684E700006E657469B2
:10405000665F6164643A20696E76616C6964206EA3
:1040600065746966000000006E657469665F61646E
:10407000643A204E6F20696E69742066756E6374B1
:10408000696F6E20676976656E000000308F0008EA
:10409000CD410008940000208C00002070B504463B
:1040A0000D462946204602F02FFA2946204604F004
:1040B00017FC70BD10B503460868DC68A04201D14A
:1040C000012000E0002040B909B9002000E00868A4
:1040D000D86000BF00BF012010BD0020FCE7F8B58C
:1040E00004460D46164600BF00BF00BF00BF28684B
:1040F0006168884201D1012000E00020D8B9286819
:1041000000906068306000BF00BF69463046FFF72E
:10411000C5FF0DB9002000E028686060012120463D
:1041200000F034F800BFE06910B12046E16988472B
:1041300000BF0120F8BD0020FCE710B50346086869
:104140009C68A04201D1012000E0002040B909B9DB
:10415000002000E00868986000BF00BF012010BD8B
:104160000020FCE702466AB10748016808E091F8C0
:104170003400401CC0B2904201D108467047096823
:104180000029F4D10020F9E78C00002070B5044626
:104190000D4600BF00BF94F8310000F0040020B1CC
:1041A00094F8310000F0010000B970BD05F0010085
:1041B00050B1606840B194F8310000F0080018B1C7
:1041C000211D2046FDF7E4FF00BFEEE703466FF038
:1041D0000B0070472DE9F84F80460C4615461E46E9
:1041E0004FF00009CA4604B9114C05B9104D06B983
:1041F0000F4E0CB1206808B9012000E000200746EE
:1042000027B16A4621464046FFF769FF4A462946DC
:104210004046FFF792FF524631464046FFF74AFFBD
:1042200027B96A4621464046FFF759FFBDE8F88F97
:10423000308F00080249086000BF00BF70470000CF
:104240009000002010B5044600BF2CB900BF10A09C
:10425000FCF70EF800BF10BD00BF94F8310000F06D
:10426000010090B900BF94F8310040F0010084F8DB
:10427000310000BF00BFE06910B12046E169884706
:1042800000BF03212046FFF781FF00BFE3E70000E6
:104290006E657469665F7365745F75703A20696EE8
:1042A00076616C6964206E657469660010B50222DF
:1042B00011463D2000F002F810BD00002DE9F0414C
:1042C00003460D46164600240027A0462A480068EB
:1042D00000F4E060B0F5E06F03D100BF4FF00408D8
:1042E00030E02548006800F4E060B0F5C06F03D10D
:1042F00001274FF0030825E01F48006800F4E06044
:10430000B0F5A06F02D10227B8461BE01A4800683A
:1043100000F4E060B0F5806F03D103274FF001088F
:1043200010E01548006800F4E060B0F5407F03D16C
:1043300004274FF0000805E04FF4A06000F020F8DB
:104340000227B846C7F1040005FA00F4C8F10401D9
:104350000F20C8403040044324010848C45403F0EF
:104360001F01012088405911890001F1E021C1F8A5
:104370000001BDE8F08100000CED00E000E400E089
:1043800002490143024A1160704700000000FA052B
:104390000CED00E0034A0A400243034B1A60BFF3EE
:1043A0004F8F704780FFFF1F08ED00E070B5044697
:1043B0000D4600222946204600F001F870BD70B578
:1043C0000346154600BF00BF13B1B1F5803F01D3CE
:1043D000012070BD09B90020FBE78AB2188910449A
:1043E00080B2904201DA0120F3E71E7B06F08000E4
:1043F00048B15868441A03F11000844209D200BF42
:1044000000BF0120E5E715B15868441A01E001201A
:10441000DFE700BF00BF5C605889104458811889ED
:10442000104418810020D4E72DE9FE4F82460D4646
:104430009046574600BF00BFB8F1010F0AD0B8F14F
:10444000410F06D0B8F5C17F0BD0B8F5207F7ED1E3
:104450004CE000BF42462946002000F081F80446A7
:1044600079E0002400200290A94600BF0820FFF751
:1044700037FD064636B914B1204600F0B3FA0020E5
:10448000BDE8FE8FF81C20F0030040F2DC51081A52
:1044900080B2484501DD484606E0F81C20F00300E4
:1044A00040F2DC51081A80B283460020CDE900803A
:1044B00006F110003844C01C20F003015B464A4658
:1044C000304600F0F6FA00BF00BF00BF00BF0CB9D5
:1044D000344601E0029806600296A9EB0B001FFA31
:1044E00080F90027B9F1000FC0DC34E0F81C20F09F
:1044F0000301E81C20F00300084486B206F1100016
:104500001FFA80F9E81C20F00300B04204D8E81C30
:1045100020F00300484501D90020B1E74846FFF7E5
:1045200071FB04460CB90020AAE70020CDE9008009
:1045300004F110003844C01C20F003012B462A4629
:10454000204600F0B6FA00BF00BF04E0FFE700BF5E
:1045500000BF002094E700BF00BF00BF20468FE7E8
:104560002DE9FC4106460C46174600BF00BF072058
:10457000FFF7B6FC054625B900BF00BF0020BDE827
:10458000FC810020234622463146CDE900702846B2
:1045900000F08FFA2846F2E72DE9FC5F06460C464C
:1045A00017469846DDE90C9BB24600BF00BF0AF1F2
:1045B000030020F003002044584504D900BF00BF89
:1045C0000020BDE8FC9FB9F1000F06D00AF10300FE
:1045D00020F0030000EB090500E00025022023463F
:1045E00022462946CDE90070404600F062FA404676
:1045F000E7E7000070B506460D4600BF06B12DB9CD
:1046000000BF0DA0FBF734FE00BF70BD00BF3446F5
:1046100004E0208929890844208124682068002832
:10462000F7D100BF00BF00BF00BF2089298908441F
:104630002081256000BFE8E7286820213D204E55F5
:104640004C4C2920262620287420213D204E554CF4
:104650004C29202870726F6772616D6D65722076CB
:10466000696F6C6174657320415049290000000036
:1046700070B505460C4621462846FFF7BBFF20468D
:1046800000F066FA00BF00BF70BD0146002002E0E6
:10469000421C90B209680029FAD170472DE9F04117
:1046A00007460D46144621892A463846FFF7BCFEC8
:1046B000064616B90020BDE8F0812146304600F0DC
:1046C00005F8804600BF00BF3046F4E770B50546E8
:1046D0000C4600BF00BF00BF3CB900BF07A0FBF7FE
:1046E000C7FD00BF6FF00F0070BD00BF228900231F
:1046F0002146284600F07CF8F6E7000070627566F7
:104700005F636F70793A20696E76616C69642073BB
:104710006F757263650000002DE9F05F8046894681
:1047200016461D464FF0000AD34600BFB8F1000FF1
:1047300007D100BF1DA0FBF79BFD00BF0020BDE817
:10474000F09F00BF00BFB9F1000F06D100BF1FA04E
:10475000FBF78EFD00BF0020F1E700BF444620E0DC
:1047600035B16089A84203DC6089281A85B217E058
:104770006089401B87B2B74200DD37466268511935
:1047800009EB0A003A46FBF71BFE0BEB07001FFA8A
:1047900080FB0AEB07001FFA80FAF01B86B20025A7
:1047A00024680EB1002CDBD15846C8E770627566EC
:1047B0005F636F70795F7061727469616C3A2069D0
:1047C0006E76616C69642062756600007062756661
:1047D0005F636F70795F7061727469616C3A2069B0
:1047E0006E76616C6964206461746170747200003B
:1047F0002DE9F05F04460D4616469A4657464FF09F
:10480000000800BF00BF00BF15B12889B04208DA18
:1048100000BF45A0FBF72CFD00BF6FF00F00BDE807
:10482000F09F00BF00BF24B120890AEB0601884237
:1048300007DA00BF49A0FBF71BFD00BF6FF00F00B8
:10484000EDE700BF00BF6089C01B6989A1EB0801CB
:10485000884203D36889A0EB080B02E06089A0EBD3
:10486000070B5E4501D2304600E058461FFA80F93A
:104870006A6802EB08016268D0194A46FBF7A0FD9E
:104880004F44C844A6EB090086B200BF00BF00BF7A
:1048900000BF688940450ED84FF000082D6800BF62
:1048A00045B93EB100BF39A0FBF7E2FC00BF6FF095
:1048B0000F00B4E700BF6089B8420DD1002724681B
:1048C00000BF44B93EB100BF34A0FBF7D1FC00BF2C
:1048D0006FF00F00A3E700BF7DB168892989884286
:1048E0000BD100BF286838B100BF30A0FBF7C0FC77
:1048F00000BF6FF0050092E700BF7CB1608921899D
:1049000088420BD100BF206838B100BF27A0FBF759
:10491000AFFC00BF6FF0050081E700BF002E92D111
:1049200000BF00BF00207AE7706275665F636F703A
:10493000795F7061727469616C5F706275663A204C
:10494000636F70795F6C656E20626967676572205E
:104950007468616E20736F7572636500706275664E
:104960005F636F70795F7061727469616C5F7062B0
:1049700075663A20746172676574206E6F74206288
:10498000696720656E6F756768000000705F66720A
:104990006F6D20213D204E554C4C0000705F746FB0
:1049A00020213D204E554C4C000000007062756681
:1049B0005F636F70795F7061727469616C5F706260
:1049C0007566282920646F6573206E6F7420616C92
:1049D0006C6F77207061636B6574207175657565A8
:1049E000732100002DE9F047044634B900BF00BF31
:1049F00000BF00BF0020BDE8F08700BF00BF002659
:104A000039E000BF00BFA07B401E00F0FF0884F823
:104A10000E80B8F1000F2AD1276800BF00BF207BAD
:104A200000F00F05607B00F0020038B1A14600BF26
:104A300000BF2046D9F81010884714E0022D04D199
:104A400021460820FFF7FEF90DE0012D04D1214693
:104A50000720FFF7F7F906E01DB92046FFF72EF80B
:104A600001E000BF00BF701CC6B23C4602E000BFC0
:104A700000BF002400BF002CC3D13046BBE770B597
:104A800004460D4601222946204600F001F870BD7B
:104A900070B505460C461646002C04DA61422846DD
:104AA00000F060F870BD324621462846FFF787FCCB
:104AB000F8E770B5DDE90445002606604160028133
:104AC000438104734573012686730026C67370BD47
:104AD0002DE9F04106460F4600BF00BF3089B842BD
:104AE00001DCBDE8F0813089C01B1FFA80F83D462B
:104AF000344609E06089281A85B22089A0EB0800B5
:104B00002081246800BF00BF6089A842F2DB207BBF
:104B100000F00F0080B96089A8420DD0607B00F0E2
:104B2000020048B9A088001B284481B22046FFF744
:104B3000F7F8044600BF00BF6581608920812068C6
:104B400010B12068FFF74EFF0020206000BFC8E7CB
:104B500030B100BF817B491C817300BF00BF00BF23
:104B6000704700002DE9F04104460D4600BF00BF2C
:104B700014B1B5F5803F02D30120BDE8F0810DB935
:104B80000020FAE7AEB200BF6089B04206DA00BF8B
:104B90000AA0FBF76DFB00BF0120EEE700BF6768CE
:104BA0006068284460606089801B60812089801B68
:104BB000208100BF00BF0020DFE70000696E637244
:104BC000656D656E745F6D61676E6974756465208F
:104BD0003C3D20702D3E6C656E0000002DE9F041DB
:104BE000044600BF00BF00BF00BF00BF00BF00BF42
:104BF00000BF208800F040F80546AC4219D0287963
:104C0000B8B91B480068854213D01A480068A8420A
:104C100001D118480460288820802888B0F5A04F6A
:104C200007D02046FFF774F80746288800F024F8DC
:104C30004780608800F020F80646A64215D03079FB
:104C400098B90C480068A04201D10A480660208843
:104C500030802088B0F5A04F07D03046FFF758F8D5
:104C60000746208800F008F84780BDE8F081000082
:104C700060000020640000200146024800680844EB
:104C8000704700005C0000202DE9F04105461D271B
:104C9000002400261A48046801E01948046804F05A
:104CA00045000028F9D004F0010030B1112701209F
:104CB00000F030FA3846BDE8F08104F0040028B175
:104CC0001327042000F026FA3846F4E700F0F6F93E
:104CD000A84202D008273846EDE70A4800F01AFA41
:104CE000002000F035FA06460748304010B91D276D
:104CF0003846E0E7304600F009F807463846DAE77C
:104D0000342C0140FF07C00008E0F9FD01461C20DB
:104D100001F000420AB100204EE001F080420AB1E9
:104D2000012049E001F000520AB1022044E001F004
:104D300080520AB103203FE001F000620AB1042072
:104D40003AE001F080620AB1052035E001F080729E
:104D50000AB1062030E001F400020AB107202BE07E
:104D600001F480020AB1082026E001F400120AB121
:104D7000092021E001F480120AB10A201CE001F4AC
:104D800000220AB10B2017E001F480320AB10C2096
:104D900012E001F400420AB10D200DE001F480425E
:104DA0000AB10E2008E001F400520AB10F2003E01E
:104DB00001F0080202B110207047000010B5054B49
:104DC0001A6822F0EC6242EA00030B43014C2360B4
:104DD00010BD0000083802402DE9F04F8CB00646A7
:104DE00000200A903EA090E8004CC068CDE905BEC6
:104DF000CDF810A007900FF2EC0ADAE9000ACDE92D
:104E0000020A0FF2E00ADAE9000ACDE9000A38489E
:104E10000068C0F381000B900B9820B1012804D0EA
:104E2000022828D103E0334927E0334925E0304800
:104E3000001F006800F03F072D48001F0068C0F306
:104E4000881C2B48001F0068C0F30140401C4FEA3B
:104E500040092748001F006800F48008B8F5800F5B
:104E600001D1254B00E0234BB3FBF7F000FB0CF026
:104E7000B0FBF9F101E01F4900BF00BF1C4800680A
:104E8000C0F3031404A8055D21FA05F21848006870
:104E9000C0F3822402A8055D22FA05F009901448A7
:104EA0000068C0F342341DF8045022FA05F008905F
:104EB00036B1012E06D0022E06D0032E0AD106E00E
:104EC0000A9108E00A9206E009980A9003E008981F
:104ED0000A9000E000BF00BF0A980CB0BDE8F08F58
:104EE000000000000000000001020304060708099A
:104EF000083802400024F40000127A00074A02EB4E
:104F00009011D1F8001800F01F0301229A401143BC
:104F1000024B03EB9012C2F80018704700300240B9
:104F2000074A02EB9011D1F8001800F01F0301228C
:104F30009A409143024B03EB9012C2F8001870475D
:104F400000300240074A02EB9011D1F8001800F03F
:104F50001F0301229A401143024B03EB9012C2F847
:104F6000001870470030024010B51D2046490870F7
:104F70004FF4807000F0E2F8E0B144480068012886
:104F800004D100F089F84049087002E01D203E4934
:104F900008704FF4807000F0CBF84CF23A3000F01B
:104FA000BFF801203A49086000203A4908603648B5
:104FB000007810BD022000F0C1F878B1022000F0A6
:104FC000B7F84CF23A3000F0ABF8002031490860F5
:104FD00012202D49087008460078EAE7082000F002
:104FE000ADF878B1082000F0A3F84CF23A3000F0A8
:104FF00097F80020274908601420234908700846C4
:105000000078D6E74FF4007000F098F880B14FF4C4
:10501000007000F08DF84CF23A3000F081F800207A
:105020001C49086017201849087008460078C0E736
:10503000102000F083F878B1102000F079F84CF2DD
:105040003A3000F06DF800201249086015200E4932
:10505000087008460078ACE7202000F06FF878B1BF
:10506000202000F065F84CF23A3000F059F80020AA
:10507000084908601620044908700846007898E737
:105080000148007895E70000500000204C00002007
:10509000540000205800002010B51D24402200219B
:1050A0000C2000F011F8002000F070F800F028F853
:1050B0000C20FFF7E9FD0446204610BD01480068BA
:1050C000C0B27047102C014030B5034600200B4C95
:1050D000246824F48064094D2C602C1F246800246B
:1050E0002D1F2C602C462160241D206820F0FF001D
:1050F00043EA020420432C1D206030BD0C2C0140EB
:105100000348006840F4806001490860704700006F
:105110000C2C01400149086070470000382C014008
:10512000024909688143014A116070473C2C0140E3
:105130000149086070470000382C014001460020FA
:10514000024A12680A4002B101207047342C014023
:105150000146002031B1012907D0022909D00329D5
:105160000FD10AE0084A10680CE0074A121D1068C7
:1051700008E0054A0832106804E0034A0C3210685F
:1051800000E000BF00BF7047142C014005490968CA
:1051900021F44071034A116011460968014311600E
:1051A000704700000C2C0140002025E000EB40017E
:1051B000134A52F82110491C00EB4002104B43F8EF
:1051C000221000EB400203EB82025268914211D39D
:1051D000012100EB400203EB8202117200EB40015F
:1051E0001A4602EB8101497A21B1002100EB40020D
:1051F00043F82210411CC8B20A28D7DB70470000D0
:105200007C3D002010B5FDF79FF910BD2DE9F04160
:1052100004460E46174600BF00BFFFF7F3FF05190F
:105220003A463146284600F003F8BDE8F081000018
:105230002DE9F04106460F4690460620FEF750FE47
:1052400004461CB900BF00BFBDE8F081002020600B
:10525000A760C4F80C8066601848006810B9174849
:105260000460F1E71549606809684968401AB0F1BF
:10527000004F01D3012000E0002028B10F48006852
:1052800020600E48046017E00C48056811E02868AB
:1052900050B1606829684968401AB0F1004F01D3E5
:1052A000012000E0002018B1286820602C6002E096
:1052B0002D68002DEBD100BF00BFC5E7E000002046
:1052C000044A116821F4000141EA0002014B1A600E
:1052D000704700000438014000203E49096841F44D
:1052E00080313C4A116000BF3A49096801F400313D
:1052F00029B90146401C4FF6FF729142F4D135495D
:10530000096801F4003131B900BF3249096801F47C
:1053100000310029F9D02F494031096841F080510E
:105320002C4A403211602C49096841F440412A4A14
:105330001160284908310968264A0832116011466F
:10534000096841F4004111601146096841F4A05117
:1053500011602249121F1160111F096841F080710C
:10536000121F116000BF1B49096801F0007100297C
:10537000F9D01949096841F48031174A116000BF1A
:105380001549496801F480310029F9D012490968AA
:1053900041F40031104A116000BF0F49496801F41F
:1053A00000310029F9D00B490831096821F00301C7
:1053B000084A083211601146096841F00201116083
:1053C00000BF04490831096801F008010029F8D03C
:1053D0007047000000380240007000400854400749
:1053E00010B5FFF779FF10BD10B5124800684FF4F3
:1053F0007A71B0FBF1F4601EB0F1807F01D301201F
:105400000FE0601E4FF0E02148610F214FF0FF30A8
:10541000FBF7ECF900204FF0E021886107200861DC
:10542000002008B100BFFEE70F214FF0FF30FBF76F
:10543000DDF910BD180000202DE9FF5F04460E467F
:1054400000BF34B900BF39A0FAF712FF00BFBDE8B2
:10545000FF9F00BF00BF00BF207D0A2807D1214663
:10546000394801F099FB204600F054FB5CE04FF016
:10547000000AD346276DD4F82480D4F88C50D4F891
:105480001090207DE8B9E08A38B300BF2F4800684B
:10549000A04205D12D480068C0682C4908600DE085
:1054A0002A49086806E0C168A14202D1E168C160EA
:1054B00002E0C0680028F6D100BF00BF0020E06015
:1054C0000BE0B246B4F816B000BF2146204801F008
:1054D00063FB01201F49087000BF206F10B1206FCF
:1054E00002F0C7FBE06E10B1E06E02F0C2FBBAF151
:1054F000000F0CD000BF00BF208B211D2346424669
:10550000CDE9001B02903946204602F06EFB207D5B
:105510000390204600F0FEFA00BF1DB16FF00C01B1
:105520004846A84700BF00BF00BF90E77463705FA4
:105530006162616E646F6E3A20696E76616C696457
:105540002070636200000000AC000020A00000207A
:10555000A8000020B000002010B50446012120461C
:10556000FFF76AFF10BD000070B505460120FEF789
:10557000B7FC04465CBB00F04DFB00BF00BF00F071
:10558000D7FE0120FEF7ACFC0446FCB900BF00BF0B
:10559000092000F0A5FE0120FEF7A2FC0446A4B9F4
:1055A00000BF00BF082000F09BFE0120FEF798FC22
:1055B00004464CB900BF00BF284600F05BFE012046
:1055C000FEF78EFC044600BF00BF00BF00BF34B32F
:1055D00098212046FAF75BFF1434657040F6683076
:1055E000A4F85000E082A082FF2004F8090C4FF4D8
:1055F0000670E0830620A0856085C01FA08301207F
:10560000A08608480068E06007480078A07240F66D
:105610006830E0860548E0660548E067143C2046AF
:1056200070BD00009C000020B20000200579000839
:1056300000DD6D0010B5044600BF3CB900BF0CA0F2
:10564000FAF716FE00BF6FF00F0010BD00BF00BFDD
:1056500000BF207D012805D000BF608B40F0100006
:10566000608300BF0121204600F00EF8EDE7000046
:105670007463705F636C6F73653A20696E76616CFA
:1056800069642070636200003EB504460D4600BFA9
:1056900000BF002D4AD0207D042802D0207D07289D
:1056A00044D1606F20B9208D40F6683188423DD0EA
:1056B00000BF00BF208BE18A221DCDE900210290AE
:1056C00023462046626A216D02F08FFA204601F0DF
:1056D0001FFA00BF00BF39480068A04205D1374813
:1056E0000068C068354908600DE03449086806E084
:1056F000C168A14202D1E168C16002E0C06800282F
:10570000F6D100BF00BF0020E06000BF01202C499F
:10571000087000BF2B480068A04202D102F0A2FE30
:1057200002E0204600F0F6F900203EBD207D20B1C9
:10573000012824D002283AD12CE0E08AD8B100BF59
:1057400021480068A04205D11F480068C0681E4972
:1057500008600DE01C49086806E0C168A14202D15A
:10576000E168C16002E0C0680028F6D100BF00BF58
:105770000020E06000BF204600F0CCF91BE020468E
:1057800000F0F6FD2146114801F006FA204600F02F
:1057900013FA10E000BF2146084801F0FDF901208E
:1057A0000749087000BF204600F0B4F903E0204626
:1057B00000F00EF8B9E700BF0020B6E7A80000200F
:1057C000B0000020DC000020A0000020A400002089
:1057D00070B5054600BF00BF287D032804D004280B
:1057E0000AD0072818D10FE0284602F0A8FA04468C
:1057F0000CB90520287511E0284602F0A0FA0446ED
:105800000CB90520287509E0284602F098FA0446EC
:105810000CB90920287501E0002070BD00BF1CB93B
:10582000284600F0C3FE09E0601C38B900BF688B51
:1058300040F00800688300BF0020EEE72046ECE758
:105840002DE9F05F80460F4691469A460A9D00BFBB
:1058500000BF00BF00BF05F0010008B1042000E058
:10586000002005F0020109B1002100E000210844F8
:1058700005F0080109B1002100E00021084405F00D
:10588000100109B1002100E0002146180320FEF7B5
:1058900027FB041E07D100BF00BF3846FFF7A2F860
:1058A0000020BDE8F09F257300202060676000BFE6
:1058B00000BF3889801B2081002060811421384678
:1058C000FEF774FD30B100BF00BF204602F0C4F9FE
:1058D0000020E6E7606840682061B8F81600FDF730
:1058E000F1FE21690880B8F81800FDF7EBFE216988
:1058F00048805046FDF7D9FE21694860B346F1174C
:1059000006EB91718910491D4FF6FF7202EA0131D1
:1059100041EA0900FDF7D6FE21698881002021694E
:1059200048822046BDE770B50B46164600BF00BF53
:1059300003B970BD198D71B12822914202DD8D1A13
:10594000ADB200E000252C46A04201DA054600E099
:105950002546284600BF00BFEBE72DE9F843044683
:105960000D460027B94600BF00BF00BF00BF00BF03
:1059700000BF05F0020000B1012707F0010008B1E7
:10598000042000E0002007F0020109B1002100E03E
:105990000021084407F0080109B1002100E00021BE
:1059A000084407F0100109B1002100E0002100EBDC
:1059B00001094FF4207249463620FEF735FDB0F15B
:1059C000000809D100BF608B40F08000608300BFF9
:1059D0004FF0FF30BDE8F88300BF00BF00972A46B4
:1059E00041462046E36DFFF72BFF061E07D100BF9F
:1059F000608B40F08000608300BF701EEAE700BF4C
:105A000000BF00BF00BF00BF00BFE06E08B9E66680
:105A100007E0E06E00E0006801680029FBD1066045
:105A200000BF0020A4F8680005F0020010B905F0DE
:105A3000010010B1E06D401CE06505F0010028B1E7
:105A400000BF608B40F02000608300BF7068FEF7ED
:105A50001CFEB4F866100844A4F8660000BF00BF3E
:105A6000B4F8660008B100BF00BF0020B2E7000034
:105A700070B525480078401C2349087000BF2348B2
:105A800004683DE0A07F20490978884237D01E484D
:105A90000078A077A07E00F0010088B100BF00BFB1
:105AA00000BF608B40F00200608300BF204600F022
:105AB0007DFD00BF608B4FF6FC710840608300BF26
:105AC000A07E00F0080058B100BF00BF00BF608B8F
:105AD0004FF6F7710840608300BF2046FFF778FE5D
